{
  "_format": "hh-sol-artifact-1",
  "contractName": "MagicDCA",
  "sourceName": "contracts/MagicDCA.sol",
  "abi": [
    {
      "inputs": [
        {
          "internalType": "address payable",
          "name": "_automate",
          "type": "address"
        },
        {
          "internalType": "contract ISwapRouter",
          "name": "_swapRouter",
          "type": "address"
        },
        {
          "internalType": "address",
          "name": "_feeToken",
          "type": "address"
        },
        {
          "internalType": "address",
          "name": "_usdc",
          "type": "address"
        }
      ],
      "stateMutability": "nonpayable",
      "type": "constructor"
    },
    {
      "anonymous": false,
      "inputs": [
        {
          "indexed": true,
          "internalType": "address",
          "name": "user",
          "type": "address"
        },
        {
          "indexed": false,
          "internalType": "uint256",
          "name": "taskId",
          "type": "uint256"
        },
        {
          "indexed": false,
          "internalType": "string",
          "name": "name",
          "type": "string"
        },
        {
          "indexed": false,
          "internalType": "uint256",
          "name": "amount",
          "type": "uint256"
        },
        {
          "indexed": false,
          "internalType": "uint128",
          "name": "interval",
          "type": "uint128"
        }
      ],
      "name": "DcaTaskCreated",
      "type": "event"
    },
    {
      "anonymous": false,
      "inputs": [
        {
          "indexed": true,
          "internalType": "address",
          "name": "user",
          "type": "address"
        },
        {
          "indexed": false,
          "internalType": "uint256",
          "name": "taskId",
          "type": "uint256"
        }
      ],
      "name": "DcaTaskDeleted",
      "type": "event"
    },
    {
      "anonymous": false,
      "inputs": [
        {
          "indexed": true,
          "internalType": "address",
          "name": "user",
          "type": "address"
        },
        {
          "indexed": false,
          "internalType": "uint256",
          "name": "taskId",
          "type": "uint256"
        },
        {
          "components": [
            {
              "internalType": "address",
              "name": "tokenIn",
              "type": "address"
            },
            {
              "internalType": "address",
              "name": "tokenOut",
              "type": "address"
            },
            {
              "internalType": "uint256",
              "name": "amountIn",
              "type": "uint256"
            },
            {
              "internalType": "uint256",
              "name": "amountOut",
              "type": "uint256"
            }
          ],
          "indexed": false,
          "internalType": "struct PerformedSwap[]",
          "name": "swaps",
          "type": "tuple[]"
        },
        {
          "indexed": false,
          "internalType": "uint256",
          "name": "fee",
          "type": "uint256"
        },
        {
          "indexed": false,
          "internalType": "address",
          "name": "feeToken",
          "type": "address"
        }
      ],
      "name": "DcaTaskExecuted",
      "type": "event"
    },
    {
      "inputs": [],
      "name": "USDC",
      "outputs": [
        {
          "internalType": "address",
          "name": "",
          "type": "address"
        }
      ],
      "stateMutability": "view",
      "type": "function"
    },
    {
      "inputs": [],
      "name": "automate",
      "outputs": [
        {
          "internalType": "contract IAutomate",
          "name": "",
          "type": "address"
        }
      ],
      "stateMutability": "view",
      "type": "function"
    },
    {
      "inputs": [
        {
          "internalType": "string",
          "name": "_name",
          "type": "string"
        },
        {
          "internalType": "uint256",
          "name": "_amount",
          "type": "uint256"
        },
        {
          "internalType": "uint128",
          "name": "_interval",
          "type": "uint128"
        },
        {
          "internalType": "uint256",
          "name": "_maxCount",
          "type": "uint256"
        },
        {
          "components": [
            {
              "internalType": "address",
              "name": "token",
              "type": "address"
            },
            {
              "internalType": "uint8",
              "name": "percentage",
              "type": "uint8"
            }
          ],
          "internalType": "struct OutputSwap[]",
          "name": "_outputSwaps",
          "type": "tuple[]"
        }
      ],
      "name": "createDcaTask",
      "outputs": [],
      "stateMutability": "nonpayable",
      "type": "function"
    },
    {
      "inputs": [
        {
          "internalType": "address",
          "name": "",
          "type": "address"
        },
        {
          "internalType": "uint256",
          "name": "",
          "type": "uint256"
        }
      ],
      "name": "dcaTasks",
      "outputs": [
        {
          "internalType": "uint256",
          "name": "id",
          "type": "uint256"
        },
        {
          "internalType": "string",
          "name": "name",
          "type": "string"
        },
        {
          "internalType": "uint256",
          "name": "amount",
          "type": "uint256"
        },
        {
          "internalType": "uint128",
          "name": "interval",
          "type": "uint128"
        },
        {
          "internalType": "uint256",
          "name": "count",
          "type": "uint256"
        },
        {
          "internalType": "uint256",
          "name": "maxCount",
          "type": "uint256"
        },
        {
          "internalType": "bytes32",
          "name": "gelatoTaskId",
          "type": "bytes32"
        },
        {
          "internalType": "uint256",
          "name": "created",
          "type": "uint256"
        },
        {
          "internalType": "uint256",
          "name": "lastExecuted",
          "type": "uint256"
        },
        {
          "internalType": "bool",
          "name": "active",
          "type": "bool"
        }
      ],
      "stateMutability": "view",
      "type": "function"
    },
    {
      "inputs": [],
      "name": "dedicatedMsgSender",
      "outputs": [
        {
          "internalType": "address",
          "name": "",
          "type": "address"
        }
      ],
      "stateMutability": "view",
      "type": "function"
    },
    {
      "inputs": [
        {
          "internalType": "uint256",
          "name": "_taskId",
          "type": "uint256"
        }
      ],
      "name": "deleteDcaTask",
      "outputs": [],
      "stateMutability": "nonpayable",
      "type": "function"
    },
    {
      "inputs": [
        {
          "internalType": "address",
          "name": "owner",
          "type": "address"
        },
        {
          "internalType": "uint256",
          "name": "_id",
          "type": "uint256"
        }
      ],
      "name": "executeDcaTask",
      "outputs": [],
      "stateMutability": "nonpayable",
      "type": "function"
    },
    {
      "inputs": [],
      "name": "feeToken",
      "outputs": [
        {
          "internalType": "address",
          "name": "",
          "type": "address"
        }
      ],
      "stateMutability": "view",
      "type": "function"
    },
    {
      "inputs": [],
      "name": "gelato1Balance",
      "outputs": [
        {
          "internalType": "contract IGelato1Balance",
          "name": "",
          "type": "address"
        }
      ],
      "stateMutability": "view",
      "type": "function"
    },
    {
      "inputs": [],
      "name": "getDcaTasks",
      "outputs": [
        {
          "components": [
            {
              "internalType": "uint256",
              "name": "id",
              "type": "uint256"
            },
            {
              "internalType": "string",
              "name": "name",
              "type": "string"
            },
            {
              "internalType": "uint256",
              "name": "amount",
              "type": "uint256"
            },
            {
              "internalType": "uint128",
              "name": "interval",
              "type": "uint128"
            },
            {
              "internalType": "uint256",
              "name": "count",
              "type": "uint256"
            },
            {
              "internalType": "uint256",
              "name": "maxCount",
              "type": "uint256"
            },
            {
              "internalType": "bytes32",
              "name": "gelatoTaskId",
              "type": "bytes32"
            },
            {
              "components": [
                {
                  "internalType": "address",
                  "name": "token",
                  "type": "address"
                },
                {
                  "internalType": "uint8",
                  "name": "percentage",
                  "type": "uint8"
                }
              ],
              "internalType": "struct OutputSwap[]",
              "name": "outputSwaps",
              "type": "tuple[]"
            },
            {
              "internalType": "uint256",
              "name": "created",
              "type": "uint256"
            },
            {
              "internalType": "uint256",
              "name": "lastExecuted",
              "type": "uint256"
            },
            {
              "internalType": "bool",
              "name": "active",
              "type": "bool"
            }
          ],
          "internalType": "struct DcaTask[]",
          "name": "",
          "type": "tuple[]"
        }
      ],
      "stateMutability": "view",
      "type": "function"
    },
    {
      "inputs": [
        {
          "internalType": "address",
          "name": "token",
          "type": "address"
        }
      ],
      "name": "getLatestPrice",
      "outputs": [
        {
          "internalType": "int256",
          "name": "price",
          "type": "int256"
        },
        {
          "internalType": "uint8",
          "name": "decimals",
          "type": "uint8"
        }
      ],
      "stateMutability": "view",
      "type": "function"
    },
    {
      "inputs": [
        {
          "internalType": "address",
          "name": "token",
          "type": "address"
        },
        {
          "internalType": "address",
          "name": "oracle",
          "type": "address"
        }
      ],
      "name": "setOracle",
      "outputs": [],
      "stateMutability": "nonpayable",
      "type": "function"
    },
    {
      "inputs": [],
      "name": "swapRouter",
      "outputs": [
        {
          "internalType": "contract ISwapRouter",
          "name": "",
          "type": "address"
        }
      ],
      "stateMutability": "view",
      "type": "function"
    },
    {
      "inputs": [
        {
          "internalType": "address",
          "name": "",
          "type": "address"
        }
      ],
      "name": "tokenToOracle",
      "outputs": [
        {
          "internalType": "address",
          "name": "",
          "type": "address"
        }
      ],
      "stateMutability": "view",
      "type": "function"
    },
    {
      "inputs": [
        {
          "internalType": "address",
          "name": "",
          "type": "address"
        },
        {
          "internalType": "uint256",
          "name": "",
          "type": "uint256"
        }
      ],
      "name": "userTaskIds",
      "outputs": [
        {
          "internalType": "uint256",
          "name": "",
          "type": "uint256"
        }
      ],
      "stateMutability": "view",
      "type": "function"
    }
  ],
  "bytecode": "0x6101406040523480156200001257600080fd5b50604051620048db380380620048db8339818101604052810190620000389190620004d9565b8380308173ffffffffffffffffffffffffffffffffffffffff1660808173ffffffffffffffffffffffffffffffffffffffff168152505060008273ffffffffffffffffffffffffffffffffffffffff1663573ea5756040518163ffffffff1660e01b8152600401602060405180830381865afa158015620000bd573d6000803e3d6000fd5b505050506040513d601f19601f82011682018060405250810190620000e391906200054b565b90508073ffffffffffffffffffffffffffffffffffffffff1663c415b95c6040518163ffffffff1660e01b8152600401602060405180830381865afa15801562000131573d6000803e3d6000fd5b505050506040513d601f19601f820116820180604052508101906200015791906200057d565b73ffffffffffffffffffffffffffffffffffffffff1660c08173ffffffffffffffffffffffffffffffffffffffff168152505060008373ffffffffffffffffffffffffffffffffffffffff1663cd3d4fb960026040518263ffffffff1660e01b8152600401620001c891906200062f565b602060405180830381865afa158015620001e6573d6000803e3d6000fd5b505050506040513d601f19601f820116820180604052508101906200020c91906200057d565b905060008173ffffffffffffffffffffffffffffffffffffffff1663ba1d0ff46040518163ffffffff1660e01b8152600401602060405180830381865afa1580156200025c573d6000803e3d6000fd5b505050506040513d601f19601f820116820180604052508101906200028291906200057d565b90508073ffffffffffffffffffffffffffffffffffffffff1663ded89a7c856040518263ffffffff1660e01b8152600401620002bf91906200065d565b6040805180830381865afa158015620002dc573d6000803e3d6000fd5b505050506040513d601f19601f82011682018060405250810190620003029190620006b7565b508073ffffffffffffffffffffffffffffffffffffffff1660a09073ffffffffffffffffffffffffffffffffffffffff16815250505050505050508273ffffffffffffffffffffffffffffffffffffffff1660e08173ffffffffffffffffffffffffffffffffffffffff16815250508173ffffffffffffffffffffffffffffffffffffffff166101208173ffffffffffffffffffffffffffffffffffffffff16815250508073ffffffffffffffffffffffffffffffffffffffff166101008173ffffffffffffffffffffffffffffffffffffffff168152505050505050620006fe565b600080fd5b600073ffffffffffffffffffffffffffffffffffffffff82169050919050565b60006200041782620003ea565b9050919050565b62000429816200040a565b81146200043557600080fd5b50565b60008151905062000449816200041e565b92915050565b60006200045c82620003ea565b9050919050565b600062000470826200044f565b9050919050565b620004828162000463565b81146200048e57600080fd5b50565b600081519050620004a28162000477565b92915050565b620004b3816200044f565b8114620004bf57600080fd5b50565b600081519050620004d381620004a8565b92915050565b60008060008060808587031215620004f657620004f5620003e5565b5b6000620005068782880162000438565b9450506020620005198782880162000491565b93505060406200052c87828801620004c2565b92505060606200053f87828801620004c2565b91505092959194509250565b600060208284031215620005645762000563620003e5565b5b6000620005748482850162000438565b91505092915050565b600060208284031215620005965762000595620003e5565b5b6000620005a684828501620004c2565b91505092915050565b7f4e487b7100000000000000000000000000000000000000000000000000000000600052602160045260246000fd5b60068110620005f257620005f1620005af565b5b50565b60008190506200060582620005de565b919050565b60006200061782620005f5565b9050919050565b62000629816200060a565b82525050565b60006020820190506200064660008301846200061e565b92915050565b62000657816200044f565b82525050565b60006020820190506200067460008301846200064c565b92915050565b60008115159050919050565b62000691816200067a565b81146200069d57600080fd5b50565b600081519050620006b18162000686565b92915050565b60008060408385031215620006d157620006d0620003e5565b5b6000620006e185828601620004c2565b9250506020620006f485828601620006a0565b9150509250929050565b60805160a05160c05160e051610100516101205161413c6200079f60003960008181611192015261197f01526000818161059c0152818161067e015281816107bb0152818161080e015281816109d501528181610b3401526112cc01526000818161082f01528181610a8b0152611a110152600050506000610c2a01526000818161030801528181611a3501528181611c1e0152611e7a015261413c6000f3fe608060405234801561001057600080fd5b50600436106100f55760003560e01c806357fb1d671161009757806389a302711161006657806389a302711461027e5780639820c7331461029c578063b70378ef146102cc578063c31c9c07146102e8576100f5565b806357fb1d671461020a5780635c38eb3a14610228578063647846a51461024457806365515e5c14610262576100f5565b806328f150eb116100d357806328f150eb1461016557806332bb7c97146101835780633591c7f6146101a1578063499d5627146101da576100f5565b8063049aacfe146100fa57806316345f18146101185780631849fae614610149575b600080fd5b610102610306565b60405161010f9190612068565b60405180910390f35b610132600480360381019061012d91906120d5565b61032a565b604051610140929190612137565b60405180910390f35b610163600480360381019061015e9190612196565b6104fb565b005b61016d610c28565b60405161017a91906121e5565b60405180910390f35b61018b610c4c565b60405161019891906125b2565b60405180910390f35b6101bb60048036038101906101b69190612196565b610fb3565b6040516101d19a9998979695949392919061265a565b60405180910390f35b6101f460048036038101906101ef9190612196565b6110c5565b60405161020191906126fd565b60405180910390f35b6102126110f6565b60405161021f9190612739565b60405180910390f35b610242600480360381019061023d9190612754565b61110e565b005b61024c611190565b60405161025991906121e5565b60405180910390f35b61027c60048036038101906102779190612794565b6111b4565b005b6102866112ca565b60405161029391906121e5565b60405180910390f35b6102b660048036038101906102b191906120d5565b6112ee565b6040516102c391906121e5565b60405180910390f35b6102e660048036038101906102e19190612a6b565b611321565b005b6102f0611a0f565b6040516102fd9190612b3f565b60405180910390f35b7f000000000000000000000000000000000000000000000000000000000000000081565b6000806000600260008573ffffffffffffffffffffffffffffffffffffffff1673ffffffffffffffffffffffffffffffffffffffff16815260200190815260200160002060009054906101000a900473ffffffffffffffffffffffffffffffffffffffff169050600073ffffffffffffffffffffffffffffffffffffffff168173ffffffffffffffffffffffffffffffffffffffff1603610400576040517f08c379a00000000000000000000000000000000000000000000000000000000081526004016103f790612ba6565b60405180910390fd5b60008190508073ffffffffffffffffffffffffffffffffffffffff1663feaf968c6040518163ffffffff1660e01b815260040160a060405180830381865afa158015610450573d6000803e3d6000fd5b505050506040513d601f19601f820116820180604052508101906104749190612c49565b9091929350909150905050809450508073ffffffffffffffffffffffffffffffffffffffff1663313ce5676040518163ffffffff1660e01b8152600401602060405180830381865afa1580156104ce573d6000803e3d6000fd5b505050506040513d601f19601f820116820180604052508101906104f29190612cd9565b92505050915091565b60008060008473ffffffffffffffffffffffffffffffffffffffff1673ffffffffffffffffffffffffffffffffffffffff168152602001908152602001600020600083815260200190815260200160002090506000816000015403610595576040517f08c379a000000000000000000000000000000000000000000000000000000000815260040161058c90612d52565b60405180910390fd5b80600201547f000000000000000000000000000000000000000000000000000000000000000073ffffffffffffffffffffffffffffffffffffffff1663dd62ed3e85306040518363ffffffff1660e01b81526004016105f5929190612d72565b602060405180830381865afa158015610612573d6000803e3d6000fd5b505050506040513d601f19601f820116820180604052508101906106369190612d9b565b1015610677576040517f08c379a000000000000000000000000000000000000000000000000000000000815260040161066e90612e14565b60405180910390fd5b80600201547f000000000000000000000000000000000000000000000000000000000000000073ffffffffffffffffffffffffffffffffffffffff166370a08231856040518263ffffffff1660e01b81526004016106d591906121e5565b602060405180830381865afa1580156106f2573d6000803e3d6000fd5b505050506040513d601f19601f820116820180604052508101906107169190612d9b565b1015610757576040517f08c379a000000000000000000000000000000000000000000000000000000000815260040161074e90612e80565b60405180910390fd5b42816009018190555060018160040160008282546107759190612ecf565b9250508190555080600501548160040154106107b657600081600a0160006101000a81548160ff0219169083151502179055506107b58160060154611a33565b5b6107e67f000000000000000000000000000000000000000000000000000000000000000084308460020154611ac1565b6000806107f1611c19565b9150915060008284600201546108079190612f03565b90506108547f00000000000000000000000000000000000000000000000000000000000000007f000000000000000000000000000000000000000000000000000000000000000083611cb6565b6000846007018054905067ffffffffffffffff811115610877576108766127cb565b5b6040519080825280602002602001820160405280156108b057816020015b61089d611f24565b8152602001906001900390816108955790505b50905060005b8560070180549050811015610bca5760008660070182815481106108dd576108dc612f37565b5b906000526020600020016040518060400160405290816000820160009054906101000a900473ffffffffffffffffffffffffffffffffffffffff1673ffffffffffffffffffffffffffffffffffffffff1673ffffffffffffffffffffffffffffffffffffffff1681526020016000820160149054906101000a900460ff1660ff1660ff1681525050905060006064826020015160ff168661097e9190612f66565b6109889190612fd7565b905060008061099a846000015161032a565b91509150600081600a6109ad919061313b565b83856109b99190613186565b6109c391906131fe565b905060006040518061010001604052807f000000000000000000000000000000000000000000000000000000000000000073ffffffffffffffffffffffffffffffffffffffff168152602001876000015173ffffffffffffffffffffffffffffffffffffffff168152602001610bb862ffffff1681526020018f73ffffffffffffffffffffffffffffffffffffffff168152602001428152602001868152602001838152602001600073ffffffffffffffffffffffffffffffffffffffff16815250905060007f000000000000000000000000000000000000000000000000000000000000000073ffffffffffffffffffffffffffffffffffffffff1663414bf389836040518263ffffffff1660e01b8152600401610ae29190613337565b6020604051808303816000875af1158015610b01573d6000803e3d6000fd5b505050506040513d601f19601f82011682018060405250810190610b259190612d9b565b905060405180608001604052807f000000000000000000000000000000000000000000000000000000000000000073ffffffffffffffffffffffffffffffffffffffff168152602001886000015173ffffffffffffffffffffffffffffffffffffffff16815260200187815260200182815250898981518110610bab57610baa612f37565b5b60200260200101819052505050505050505080806001019150506108b6565b508673ffffffffffffffffffffffffffffffffffffffff167fdf53dd9b16493a945c5f70fdfff6fac32f2ebedaaaf34a327a9eb308eeb17c0a87838787604051610c179493929190613457565b60405180910390a250505050505050565b7f000000000000000000000000000000000000000000000000000000000000000081565b60606000600160003373ffffffffffffffffffffffffffffffffffffffff1673ffffffffffffffffffffffffffffffffffffffff16815260200190815260200160002090506000818054905067ffffffffffffffff811115610cb157610cb06127cb565b5b604051908082528060200260200182016040528015610cea57816020015b610cd7611f78565b815260200190600190039081610ccf5790505b50905060005b8280549050811015610faa576000803373ffffffffffffffffffffffffffffffffffffffff1673ffffffffffffffffffffffffffffffffffffffff1681526020019081526020016000206000848381548110610d4f57610d4e612f37565b5b906000526020600020015481526020019081526020016000206040518061016001604052908160008201548152602001600182018054610d8e906134d2565b80601f0160208091040260200160405190810160405280929190818152602001828054610dba906134d2565b8015610e075780601f10610ddc57610100808354040283529160200191610e07565b820191906000526020600020905b815481529060010190602001808311610dea57829003601f168201915b50505050508152602001600282015481526020016003820160009054906101000a90046fffffffffffffffffffffffffffffffff166fffffffffffffffffffffffffffffffff166fffffffffffffffffffffffffffffffff16815260200160048201548152602001600582015481526020016006820154815260200160078201805480602002602001604051908101604052809291908181526020016000905b82821015610f48578382906000526020600020016040518060400160405290816000820160009054906101000a900473ffffffffffffffffffffffffffffffffffffffff1673ffffffffffffffffffffffffffffffffffffffff1673ffffffffffffffffffffffffffffffffffffffff1681526020016000820160149054906101000a900460ff1660ff1660ff168152505081526020019060010190610ea7565b5050505081526020016008820154815260200160098201548152602001600a820160009054906101000a900460ff161515151581525050828281518110610f9257610f91612f37565b5b60200260200101819052508080600101915050610cf0565b50809250505090565b600060205281600052604060002060205280600052604060002060009150915050806000015490806001018054610fe9906134d2565b80601f0160208091040260200160405190810160405280929190818152602001828054611015906134d2565b80156110625780601f1061103757610100808354040283529160200191611062565b820191906000526020600020905b81548152906001019060200180831161104557829003601f168201915b5050505050908060020154908060030160009054906101000a90046fffffffffffffffffffffffffffffffff169080600401549080600501549080600601549080600801549080600901549080600a0160009054906101000a900460ff1690508a565b600160205281600052604060002081815481106110e157600080fd5b90600052602060002001600091509150505481565b737506c12a824d73d9b08564d5afc22c949434755e81565b80600260008473ffffffffffffffffffffffffffffffffffffffff1673ffffffffffffffffffffffffffffffffffffffff16815260200190815260200160002060006101000a81548173ffffffffffffffffffffffffffffffffffffffff021916908373ffffffffffffffffffffffffffffffffffffffff1602179055505050565b7f000000000000000000000000000000000000000000000000000000000000000081565b60008060003373ffffffffffffffffffffffffffffffffffffffff1673ffffffffffffffffffffffffffffffffffffffff16815260200190815260200160002060008381526020019081526020016000209050600081600001540361124e576040517f08c379a000000000000000000000000000000000000000000000000000000000815260040161124590612d52565b60405180910390fd5b600081600a0160006101000a81548160ff0219169083151502179055506112788160060154611a33565b3373ffffffffffffffffffffffffffffffffffffffff167f169c5f40d9f8910b814ad043091ef3d86d4679da6bab9c6b2bb8d519313bf197836040516112be91906126fd565b60405180910390a25050565b7f000000000000000000000000000000000000000000000000000000000000000081565b60026020528060005260406000206000915054906101000a900473ffffffffffffffffffffffffffffffffffffffff1681565b6000805b82518110156113fc57600083828151811061134357611342612f37565b5b60200260200101516020015160ff161180156113815750606483828151811061136f5761136e612f37565b5b60200260200101516020015160ff1611155b6113c0576040517f08c379a00000000000000000000000000000000000000000000000000000000081526004016113b790613575565b60405180910390fd5b8281815181106113d3576113d2612f37565b5b60200260200101516020015160ff16826113ed9190612ecf565b91508080600101915050611325565b5060648114611440576040517f08c379a0000000000000000000000000000000000000000000000000000000008152600401611437906135e1565b60405180910390fd5b60008311611483576040517f08c379a000000000000000000000000000000000000000000000000000000000815260040161147a9061364d565b60405180910390fd5b6000846fffffffffffffffffffffffffffffffff16116114d8576040517f08c379a00000000000000000000000000000000000000000000000000000000081526004016114cf906136b9565b60405180910390fd5b6000851161151b576040517f08c379a000000000000000000000000000000000000000000000000000000000815260040161151290613725565b60405180910390fd5b600042336040516020016115309291906137ae565b6040516020818303038152906040528051906020012060001c905060008060003373ffffffffffffffffffffffffffffffffffffffff1673ffffffffffffffffffffffffffffffffffffffff16815260200190815260200160002060008381526020019081526020016000209050818160000181905550878160010190816115b8919061397c565b50868160020181905550858160030160006101000a8154816fffffffffffffffffffffffffffffffff02191690836fffffffffffffffffffffffffffffffff160217905550600081600401819055508481600501819055506000801b816006018190555042816008018190555042816009018190555060005b84518110156116f5578160070185828151811061165157611650612f37565b5b60200260200101519080600181540180825580915050600190039060005260206000200160009091909190915060008201518160000160006101000a81548173ffffffffffffffffffffffffffffffffffffffff021916908373ffffffffffffffffffffffffffffffffffffffff16021790555060208201518160000160146101000a81548160ff021916908360ff16021790555050508080600101915050611631565b50600160003373ffffffffffffffffffffffffffffffffffffffff1673ffffffffffffffffffffffffffffffffffffffff16815260200190815260200160002082908060018154018082558091505060019003906000526020600020016000909190919091505560003073ffffffffffffffffffffffffffffffffffffffff16631849fae6338460000154604051602401611791929190613a4e565b604051602081830303815290604052915060e01b6020820180517bffffffffffffffffffffffffffffffffffffffffffffffffffffffff8381831617835250505050905060006040518060400160405280600267ffffffffffffffff8111156117fd576117fc6127cb565b5b60405190808252806020026020018201604052801561182b5781602001602082028036833780820191505090505b508152602001600267ffffffffffffffff81111561184c5761184b6127cb565b5b60405190808252806020026020018201604052801561187f57816020015b606081526020019060019003908161186a5790505b5081525090506002816000015160008151811061189f5761189e612f37565b5b602002602001019060058111156118b9576118b8613a77565b5b908160058111156118cd576118cc613a77565b5b81525050600581600001516001815181106118eb576118ea612f37565b5b6020026020010190600581111561190557611904613a77565b5b9081600581111561191957611918613a77565b5b81525050611925611e0b565b816020015160008151811061193d5761193c612f37565b5b60200260200101819052506119524289611e22565b816020015160018151811061196a57611969612f37565b5b602002602001018190525060006119a33084847f0000000000000000000000000000000000000000000000000000000000000000611e76565b90508084600601819055503373ffffffffffffffffffffffffffffffffffffffff167fa7bee0be4d6ffe18384b41b27aeab1345080238ee47065d993ac88b24ed9c733868d8d8d6040516119fa9493929190613aa6565b60405180910390a25050505050505050505050565b7f000000000000000000000000000000000000000000000000000000000000000081565b7f000000000000000000000000000000000000000000000000000000000000000073ffffffffffffffffffffffffffffffffffffffff1663ee8ca3b5826040518263ffffffff1660e01b8152600401611a8c9190613af2565b600060405180830381600087803b158015611aa657600080fd5b505af1158015611aba573d6000803e3d6000fd5b5050505050565b6000808573ffffffffffffffffffffffffffffffffffffffff166323b872dd60e01b868686604051602401611af893929190613b0d565b604051602081830303815290604052907bffffffffffffffffffffffffffffffffffffffffffffffffffffffff19166020820180517bffffffffffffffffffffffffffffffffffffffffffffffffffffffff8381831617835250505050604051611b629190613b8b565b6000604051808303816000865af19150503d8060008114611b9f576040519150601f19603f3d011682016040523d82523d6000602084013e611ba4565b606091505b5091509150818015611bd25750600081511480611bd1575080806020019051810190611bd09190613bce565b5b5b611c11576040517f08c379a0000000000000000000000000000000000000000000000000000000008152600401611c0890613c47565b60405180910390fd5b505050505050565b6000807f000000000000000000000000000000000000000000000000000000000000000073ffffffffffffffffffffffffffffffffffffffff1663b810c6366040518163ffffffff1660e01b81526004016040805180830381865afa158015611c86573d6000803e3d6000fd5b505050506040513d601f19601f82011682018060405250810190611caa9190613c7c565b80925081935050509091565b6000808473ffffffffffffffffffffffffffffffffffffffff1663095ea7b360e01b8585604051602401611ceb929190613a4e565b604051602081830303815290604052907bffffffffffffffffffffffffffffffffffffffffffffffffffffffff19166020820180517bffffffffffffffffffffffffffffffffffffffffffffffffffffffff8381831617835250505050604051611d559190613b8b565b6000604051808303816000865af19150503d8060008114611d92576040519150601f19603f3d011682016040523d82523d6000602084013e611d97565b606091505b5091509150818015611dc55750600081511480611dc4575080806020019051810190611dc39190613bce565b5b5b611e04576040517f08c379a0000000000000000000000000000000000000000000000000000000008152600401611dfb90613d08565b60405180910390fd5b5050505050565b606060405180602001604052806000815250905090565b606060008383604051602001611e39929190613d28565b6040516020818303038152906040529050600081604051602001611e5e929190613de3565b60405160208183030381529060405291505092915050565b60007f000000000000000000000000000000000000000000000000000000000000000073ffffffffffffffffffffffffffffffffffffffff16633323b467868686866040518563ffffffff1660e01b8152600401611ed7949392919061405a565b6020604051808303816000875af1158015611ef6573d6000803e3d6000fd5b505050506040513d601f19601f82011682018060405250810190611f1a91906140d9565b9050949350505050565b6040518060800160405280600073ffffffffffffffffffffffffffffffffffffffff168152602001600073ffffffffffffffffffffffffffffffffffffffff16815260200160008152602001600081525090565b60405180610160016040528060008152602001606081526020016000815260200160006fffffffffffffffffffffffffffffffff1681526020016000815260200160008152602001600080191681526020016060815260200160008152602001600081526020016000151581525090565b600073ffffffffffffffffffffffffffffffffffffffff82169050919050565b6000819050919050565b600061202e61202961202484611fe9565b612009565b611fe9565b9050919050565b600061204082612013565b9050919050565b600061205282612035565b9050919050565b61206281612047565b82525050565b600060208201905061207d6000830184612059565b92915050565b6000604051905090565b600080fd5b600080fd5b60006120a282611fe9565b9050919050565b6120b281612097565b81146120bd57600080fd5b50565b6000813590506120cf816120a9565b92915050565b6000602082840312156120eb576120ea61208d565b5b60006120f9848285016120c0565b91505092915050565b6000819050919050565b61211581612102565b82525050565b600060ff82169050919050565b6121318161211b565b82525050565b600060408201905061214c600083018561210c565b6121596020830184612128565b9392505050565b6000819050919050565b61217381612160565b811461217e57600080fd5b50565b6000813590506121908161216a565b92915050565b600080604083850312156121ad576121ac61208d565b5b60006121bb858286016120c0565b92505060206121cc85828601612181565b9150509250929050565b6121df81612097565b82525050565b60006020820190506121fa60008301846121d6565b92915050565b600081519050919050565b600082825260208201905092915050565b6000819050602082019050919050565b61223581612160565b82525050565b600081519050919050565b600082825260208201905092915050565b60005b8381101561227557808201518184015260208101905061225a565b60008484015250505050565b6000601f19601f8301169050919050565b600061229d8261223b565b6122a78185612246565b93506122b7818560208601612257565b6122c081612281565b840191505092915050565b60006fffffffffffffffffffffffffffffffff82169050919050565b6122f0816122cb565b82525050565b6000819050919050565b612309816122f6565b82525050565b600081519050919050565b600082825260208201905092915050565b6000819050602082019050919050565b61234481612097565b82525050565b6123538161211b565b82525050565b60408201600082015161236f600085018261233b565b506020820151612382602085018261234a565b50505050565b60006123948383612359565b60408301905092915050565b6000602082019050919050565b60006123b88261230f565b6123c2818561231a565b93506123cd8361232b565b8060005b838110156123fe5781516123e58882612388565b97506123f0836123a0565b9250506001810190506123d1565b5085935050505092915050565b60008115159050919050565b6124208161240b565b82525050565b60006101608301600083015161243f600086018261222c565b50602083015184820360208601526124578282612292565b915050604083015161246c604086018261222c565b50606083015161247f60608601826122e7565b506080830151612492608086018261222c565b5060a08301516124a560a086018261222c565b5060c08301516124b860c0860182612300565b5060e083015184820360e08601526124d082826123ad565b9150506101008301516124e761010086018261222c565b506101208301516124fc61012086018261222c565b50610140830151612511610140860182612417565b508091505092915050565b60006125288383612426565b905092915050565b6000602082019050919050565b600061254882612200565b612552818561220b565b9350836020820285016125648561221c565b8060005b858110156125a05784840389528151612581858261251c565b945061258c83612530565b925060208a01995050600181019050612568565b50829750879550505050505092915050565b600060208201905081810360008301526125cc818461253d565b905092915050565b6125dd81612160565b82525050565b600082825260208201905092915050565b60006125ff8261223b565b61260981856125e3565b9350612619818560208601612257565b61262281612281565b840191505092915050565b612636816122cb565b82525050565b612645816122f6565b82525050565b6126548161240b565b82525050565b600061014082019050612670600083018d6125d4565b8181036020830152612682818c6125f4565b9050612691604083018b6125d4565b61269e606083018a61262d565b6126ab60808301896125d4565b6126b860a08301886125d4565b6126c560c083018761263c565b6126d260e08301866125d4565b6126e06101008301856125d4565b6126ee61012083018461264b565b9b9a5050505050505050505050565b600060208201905061271260008301846125d4565b92915050565b600061272382612035565b9050919050565b61273381612718565b82525050565b600060208201905061274e600083018461272a565b92915050565b6000806040838503121561276b5761276a61208d565b5b6000612779858286016120c0565b925050602061278a858286016120c0565b9150509250929050565b6000602082840312156127aa576127a961208d565b5b60006127b884828501612181565b91505092915050565b600080fd5b600080fd5b7f4e487b7100000000000000000000000000000000000000000000000000000000600052604160045260246000fd5b61280382612281565b810181811067ffffffffffffffff82111715612822576128216127cb565b5b80604052505050565b6000612835612083565b905061284182826127fa565b919050565b600067ffffffffffffffff821115612861576128606127cb565b5b61286a82612281565b9050602081019050919050565b82818337600083830152505050565b600061289961289484612846565b61282b565b9050828152602081018484840111156128b5576128b46127c6565b5b6128c0848285612877565b509392505050565b600082601f8301126128dd576128dc6127c1565b5b81356128ed848260208601612886565b91505092915050565b6128ff816122cb565b811461290a57600080fd5b50565b60008135905061291c816128f6565b92915050565b600067ffffffffffffffff82111561293d5761293c6127cb565b5b602082029050602081019050919050565b600080fd5b600080fd5b6129618161211b565b811461296c57600080fd5b50565b60008135905061297e81612958565b92915050565b60006040828403121561299a57612999612953565b5b6129a4604061282b565b905060006129b4848285016120c0565b60008301525060206129c88482850161296f565b60208301525092915050565b60006129e76129e284612922565b61282b565b90508083825260208201905060408402830185811115612a0a57612a0961294e565b5b835b81811015612a335780612a1f8882612984565b845260208401935050604081019050612a0c565b5050509392505050565b600082601f830112612a5257612a516127c1565b5b8135612a628482602086016129d4565b91505092915050565b600080600080600060a08688031215612a8757612a8661208d565b5b600086013567ffffffffffffffff811115612aa557612aa4612092565b5b612ab1888289016128c8565b9550506020612ac288828901612181565b9450506040612ad38882890161290d565b9350506060612ae488828901612181565b925050608086013567ffffffffffffffff811115612b0557612b04612092565b5b612b1188828901612a3d565b9150509295509295909350565b6000612b2982612035565b9050919050565b612b3981612b1e565b82525050565b6000602082019050612b546000830184612b30565b92915050565b7f4f7261636c65206e6f742073657420666f72207468697320746f6b656e000000600082015250565b6000612b90601d836125e3565b9150612b9b82612b5a565b602082019050919050565b60006020820190508181036000830152612bbf81612b83565b9050919050565b600069ffffffffffffffffffff82169050919050565b612be581612bc6565b8114612bf057600080fd5b50565b600081519050612c0281612bdc565b92915050565b612c1181612102565b8114612c1c57600080fd5b50565b600081519050612c2e81612c08565b92915050565b600081519050612c438161216a565b92915050565b600080600080600060a08688031215612c6557612c6461208d565b5b6000612c7388828901612bf3565b9550506020612c8488828901612c1f565b9450506040612c9588828901612c34565b9350506060612ca688828901612c34565b9250506080612cb788828901612bf3565b9150509295509295909350565b600081519050612cd381612958565b92915050565b600060208284031215612cef57612cee61208d565b5b6000612cfd84828501612cc4565b91505092915050565b7f5461736b20646f6573206e6f7420657869737400000000000000000000000000600082015250565b6000612d3c6013836125e3565b9150612d4782612d06565b602082019050919050565b60006020820190508181036000830152612d6b81612d2f565b9050919050565b6000604082019050612d8760008301856121d6565b612d9460208301846121d6565b9392505050565b600060208284031215612db157612db061208d565b5b6000612dbf84828501612c34565b91505092915050565b7f496e73756666696369656e7420616c6c6f77616e636520666f72205553444300600082015250565b6000612dfe601f836125e3565b9150612e0982612dc8565b602082019050919050565b60006020820190508181036000830152612e2d81612df1565b9050919050565b7f496e73756666696369656e7420555344432062616c616e636500000000000000600082015250565b6000612e6a6019836125e3565b9150612e7582612e34565b602082019050919050565b60006020820190508181036000830152612e9981612e5d565b9050919050565b7f4e487b7100000000000000000000000000000000000000000000000000000000600052601160045260246000fd5b6000612eda82612160565b9150612ee583612160565b9250828201905080821115612efd57612efc612ea0565b5b92915050565b6000612f0e82612160565b9150612f1983612160565b9250828203905081811115612f3157612f30612ea0565b5b92915050565b7f4e487b7100000000000000000000000000000000000000000000000000000000600052603260045260246000fd5b6000612f7182612160565b9150612f7c83612160565b9250828202612f8a81612160565b91508282048414831517612fa157612fa0612ea0565b5b5092915050565b7f4e487b7100000000000000000000000000000000000000000000000000000000600052601260045260246000fd5b6000612fe282612160565b9150612fed83612160565b925082612ffd57612ffc612fa8565b5b828204905092915050565b60008160011c9050919050565b6000808291508390505b600185111561305f5780860481111561303b5761303a612ea0565b5b600185161561304a5780820291505b808102905061305885613008565b945061301f565b94509492505050565b6000826130785760019050613134565b816130865760009050613134565b816001811461309c57600281146130a6576130d5565b6001915050613134565b60ff8411156130b8576130b7612ea0565b5b8360020a9150848211156130cf576130ce612ea0565b5b50613134565b5060208310610133831016604e8410600b841016171561310a5782820a90508381111561310557613104612ea0565b5b613134565b6131178484846001613015565b9250905081840481111561312e5761312d612ea0565b5b81810290505b9392505050565b600061314682612160565b91506131518361211b565b925061317e7fffffffffffffffffffffffffffffffffffffffffffffffffffffffffffffffff8484613068565b905092915050565b600061319182612102565b915061319c83612102565b92508282026131aa81612102565b91507f800000000000000000000000000000000000000000000000000000000000000084146000841216156131e2576131e1612ea0565b5b82820584148315176131f7576131f6612ea0565b5b5092915050565b600061320982612102565b915061321483612102565b92508261322457613223612fa8565b5b600160000383147f80000000000000000000000000000000000000000000000000000000000000008314161561325d5761325c612ea0565b5b828205905092915050565b600062ffffff82169050919050565b61328081613268565b82525050565b61328f81611fe9565b82525050565b610100820160008201516132ac600085018261233b565b5060208201516132bf602085018261233b565b5060408201516132d26040850182613277565b5060608201516132e5606085018261233b565b5060808201516132f8608085018261222c565b5060a082015161330b60a085018261222c565b5060c082015161331e60c085018261222c565b5060e082015161333160e0850182613286565b50505050565b60006101008201905061334d6000830184613295565b92915050565b600081519050919050565b600082825260208201905092915050565b6000819050602082019050919050565b608082016000820151613395600085018261233b565b5060208201516133a8602085018261233b565b5060408201516133bb604085018261222c565b5060608201516133ce606085018261222c565b50505050565b60006133e0838361337f565b60808301905092915050565b6000602082019050919050565b600061340482613353565b61340e818561335e565b93506134198361336f565b8060005b8381101561344a57815161343188826133d4565b975061343c836133ec565b92505060018101905061341d565b5085935050505092915050565b600060808201905061346c60008301876125d4565b818103602083015261347e81866133f9565b905061348d60408301856125d4565b61349a60608301846121d6565b95945050505050565b7f4e487b7100000000000000000000000000000000000000000000000000000000600052602260045260246000fd5b600060028204905060018216806134ea57607f821691505b6020821081036134fd576134fc6134a3565b5b50919050565b7f50657263656e74616765206d757374206265206265747765656e203120616e6460008201527f2031303000000000000000000000000000000000000000000000000000000000602082015250565b600061355f6024836125e3565b915061356a82613503565b604082019050919050565b6000602082019050818103600083015261358e81613552565b9050919050565b7f546f74616c2070657263656e74616765206d7573742062652031303000000000600082015250565b60006135cb601c836125e3565b91506135d682613595565b602082019050919050565b600060208201905081810360008301526135fa816135be565b9050919050565b7f4d617820636f756e74206d7573742062652067726561746572207468616e2030600082015250565b60006136376020836125e3565b915061364282613601565b602082019050919050565b600060208201905081810360008301526136668161362a565b9050919050565b7f496e74657276616c206d7573742062652067726561746572207468616e203000600082015250565b60006136a3601f836125e3565b91506136ae8261366d565b602082019050919050565b600060208201905081810360008301526136d281613696565b9050919050565b7f416d6f756e74206d7573742062652067726561746572207468616e2030000000600082015250565b600061370f601d836125e3565b915061371a826136d9565b602082019050919050565b6000602082019050818103600083015261373e81613702565b9050919050565b6000819050919050565b61376061375b82612160565b613745565b82525050565b60008160601b9050919050565b600061377e82613766565b9050919050565b600061379082613773565b9050919050565b6137a86137a382612097565b613785565b82525050565b60006137ba828561374f565b6020820191506137ca8284613797565b6014820191508190509392505050565b60008190508160005260206000209050919050565b60006020601f8301049050919050565b600082821b905092915050565b60006008830261383c7fffffffffffffffffffffffffffffffffffffffffffffffffffffffffffffffff826137ff565b61384686836137ff565b95508019841693508086168417925050509392505050565b600061387961387461386f84612160565b612009565b612160565b9050919050565b6000819050919050565b6138938361385e565b6138a761389f82613880565b84845461380c565b825550505050565b600090565b6138bc6138af565b6138c781848461388a565b505050565b5b818110156138eb576138e06000826138b4565b6001810190506138cd565b5050565b601f82111561393057613901816137da565b61390a846137ef565b81016020851015613919578190505b61392d613925856137ef565b8301826138cc565b50505b505050565b600082821c905092915050565b600061395360001984600802613935565b1980831691505092915050565b600061396c8383613942565b9150826002028217905092915050565b6139858261223b565b67ffffffffffffffff81111561399e5761399d6127cb565b5b6139a882546134d2565b6139b38282856138ef565b600060209050601f8311600181146139e657600084156139d4578287015190505b6139de8582613960565b865550613a46565b601f1984166139f4866137da565b60005b82811015613a1c578489015182556001820191506020850194506020810190506139f7565b86831015613a395784890151613a35601f891682613942565b8355505b6001600288020188555050505b505050505050565b6000604082019050613a6360008301856121d6565b613a7060208301846125d4565b9392505050565b7f4e487b7100000000000000000000000000000000000000000000000000000000600052602160045260246000fd5b6000608082019050613abb60008301876125d4565b8181036020830152613acd81866125f4565b9050613adc60408301856125d4565b613ae9606083018461262d565b95945050505050565b6000602082019050613b07600083018461263c565b92915050565b6000606082019050613b2260008301866121d6565b613b2f60208301856121d6565b613b3c60408301846125d4565b949350505050565b600081519050919050565b600081905092915050565b6000613b6582613b44565b613b6f8185613b4f565b9350613b7f818560208601612257565b80840191505092915050565b6000613b978284613b5a565b915081905092915050565b613bab8161240b565b8114613bb657600080fd5b50565b600081519050613bc881613ba2565b92915050565b600060208284031215613be457613be361208d565b5b6000613bf284828501613bb9565b91505092915050565b7f5354460000000000000000000000000000000000000000000000000000000000600082015250565b6000613c316003836125e3565b9150613c3c82613bfb565b602082019050919050565b60006020820190508181036000830152613c6081613c24565b9050919050565b600081519050613c76816120a9565b92915050565b60008060408385031215613c9357613c9261208d565b5b6000613ca185828601612c34565b9250506020613cb285828601613c67565b9150509250929050565b7f5341000000000000000000000000000000000000000000000000000000000000600082015250565b6000613cf26002836125e3565b9150613cfd82613cbc565b602082019050919050565b60006020820190508181036000830152613d2181613ce5565b9050919050565b6000604082019050613d3d600083018561262d565b613d4a602083018461262d565b9392505050565b60048110613d6257613d61613a77565b5b50565b6000819050613d7382613d51565b919050565b6000613d8382613d65565b9050919050565b613d9381613d78565b82525050565b600082825260208201905092915050565b6000613db582613b44565b613dbf8185613d99565b9350613dcf818560208601612257565b613dd881612281565b840191505092915050565b6000604082019050613df86000830185613d8a565b8181036020830152613e0a8184613daa565b90509392505050565b600081519050919050565b600082825260208201905092915050565b6000819050602082019050919050565b60068110613e5057613e4f613a77565b5b50565b6000819050613e6182613e3f565b919050565b6000613e7182613e53565b9050919050565b613e8181613e66565b82525050565b6000613e938383613e78565b60208301905092915050565b6000602082019050919050565b6000613eb782613e13565b613ec18185613e1e565b9350613ecc83613e2f565b8060005b83811015613efd578151613ee48882613e87565b9750613eef83613e9f565b925050600181019050613ed0565b5085935050505092915050565b600081519050919050565b600082825260208201905092915050565b6000819050602082019050919050565b600082825260208201905092915050565b6000613f5282613b44565b613f5c8185613f36565b9350613f6c818560208601612257565b613f7581612281565b840191505092915050565b6000613f8c8383613f47565b905092915050565b6000602082019050919050565b6000613fac82613f0a565b613fb68185613f15565b935083602082028501613fc885613f26565b8060005b858110156140045784840389528151613fe58582613f80565b9450613ff083613f94565b925060208a01995050600181019050613fcc565b50829750879550505050505092915050565b600060408301600083015184820360008601526140338282613eac565b9150506020830151848203602086015261404d8282613fa1565b9150508091505092915050565b600060808201905061406f60008301876121d6565b81810360208301526140818186613daa565b905081810360408301526140958185614016565b90506140a460608301846121d6565b95945050505050565b6140b6816122f6565b81146140c157600080fd5b50565b6000815190506140d3816140ad565b92915050565b6000602082840312156140ef576140ee61208d565b5b60006140fd848285016140c4565b9150509291505056fea2646970667358221220c81803979e09336007c2eed594e6982c1e16b4197e422a8c6e88cf424653fbdf64736f6c63430008180033",
  "linkReferences": {},
  "deployedLinkReferences": {}
}