{
  "_format": "hh-sol-artifact-1",
  "contractName": "MagicDCA",
  "sourceName": "contracts/MagicDCA.sol",
  "abi": [
    {
      "inputs": [
        {
          "internalType": "address payable",
          "name": "_automate",
          "type": "address"
        },
        {
          "internalType": "contract ISwapRouter",
          "name": "_swapRouter",
          "type": "address"
        },
        {
          "internalType": "address",
          "name": "_feeToken",
          "type": "address"
        },
        {
          "internalType": "address",
          "name": "_usdc",
          "type": "address"
        }
      ],
      "stateMutability": "nonpayable",
      "type": "constructor"
    },
    {
      "anonymous": false,
      "inputs": [
        {
          "indexed": true,
          "internalType": "address",
          "name": "user",
          "type": "address"
        },
        {
          "indexed": false,
          "internalType": "uint256",
          "name": "taskId",
          "type": "uint256"
        },
        {
          "indexed": false,
          "internalType": "string",
          "name": "name",
          "type": "string"
        },
        {
          "indexed": false,
          "internalType": "uint256",
          "name": "amount",
          "type": "uint256"
        },
        {
          "indexed": false,
          "internalType": "uint128",
          "name": "interval",
          "type": "uint128"
        }
      ],
      "name": "DcaTaskCreated",
      "type": "event"
    },
    {
      "anonymous": false,
      "inputs": [
        {
          "indexed": true,
          "internalType": "address",
          "name": "user",
          "type": "address"
        },
        {
          "indexed": false,
          "internalType": "uint256",
          "name": "taskId",
          "type": "uint256"
        }
      ],
      "name": "DcaTaskDeleted",
      "type": "event"
    },
    {
      "anonymous": false,
      "inputs": [
        {
          "indexed": true,
          "internalType": "address",
          "name": "user",
          "type": "address"
        },
        {
          "indexed": false,
          "internalType": "uint256",
          "name": "taskId",
          "type": "uint256"
        },
        {
          "components": [
            {
              "internalType": "address",
              "name": "tokenIn",
              "type": "address"
            },
            {
              "internalType": "address",
              "name": "tokenOut",
              "type": "address"
            },
            {
              "internalType": "uint256",
              "name": "amountIn",
              "type": "uint256"
            },
            {
              "internalType": "uint256",
              "name": "amountOut",
              "type": "uint256"
            }
          ],
          "indexed": false,
          "internalType": "struct PerformedSwap[]",
          "name": "swaps",
          "type": "tuple[]"
        },
        {
          "indexed": false,
          "internalType": "uint256",
          "name": "fee",
          "type": "uint256"
        },
        {
          "indexed": false,
          "internalType": "address",
          "name": "feeToken",
          "type": "address"
        }
      ],
      "name": "DcaTaskExecuted",
      "type": "event"
    },
    {
      "inputs": [],
      "name": "USDC",
      "outputs": [
        {
          "internalType": "address",
          "name": "",
          "type": "address"
        }
      ],
      "stateMutability": "view",
      "type": "function"
    },
    {
      "inputs": [],
      "name": "automate",
      "outputs": [
        {
          "internalType": "contract IAutomate",
          "name": "",
          "type": "address"
        }
      ],
      "stateMutability": "view",
      "type": "function"
    },
    {
      "inputs": [
        {
          "internalType": "string",
          "name": "_name",
          "type": "string"
        },
        {
          "internalType": "uint256",
          "name": "_amount",
          "type": "uint256"
        },
        {
          "internalType": "uint128",
          "name": "_interval",
          "type": "uint128"
        },
        {
          "internalType": "uint256",
          "name": "_maxCount",
          "type": "uint256"
        },
        {
          "components": [
            {
              "internalType": "address",
              "name": "token",
              "type": "address"
            },
            {
              "internalType": "uint8",
              "name": "percentage",
              "type": "uint8"
            }
          ],
          "internalType": "struct OutputSwap[]",
          "name": "_outputSwaps",
          "type": "tuple[]"
        }
      ],
      "name": "createDcaTask",
      "outputs": [],
      "stateMutability": "nonpayable",
      "type": "function"
    },
    {
      "inputs": [
        {
          "internalType": "address",
          "name": "",
          "type": "address"
        },
        {
          "internalType": "uint256",
          "name": "",
          "type": "uint256"
        }
      ],
      "name": "dcaTasks",
      "outputs": [
        {
          "internalType": "uint256",
          "name": "id",
          "type": "uint256"
        },
        {
          "internalType": "string",
          "name": "name",
          "type": "string"
        },
        {
          "internalType": "uint256",
          "name": "amount",
          "type": "uint256"
        },
        {
          "internalType": "uint128",
          "name": "interval",
          "type": "uint128"
        },
        {
          "internalType": "uint256",
          "name": "count",
          "type": "uint256"
        },
        {
          "internalType": "uint256",
          "name": "maxCount",
          "type": "uint256"
        },
        {
          "internalType": "bytes32",
          "name": "gelatoTaskId",
          "type": "bytes32"
        },
        {
          "internalType": "uint256",
          "name": "created",
          "type": "uint256"
        },
        {
          "internalType": "uint256",
          "name": "lastExecuted",
          "type": "uint256"
        },
        {
          "internalType": "bool",
          "name": "active",
          "type": "bool"
        }
      ],
      "stateMutability": "view",
      "type": "function"
    },
    {
      "inputs": [],
      "name": "dedicatedMsgSender",
      "outputs": [
        {
          "internalType": "address",
          "name": "",
          "type": "address"
        }
      ],
      "stateMutability": "view",
      "type": "function"
    },
    {
      "inputs": [
        {
          "internalType": "uint256",
          "name": "_taskId",
          "type": "uint256"
        }
      ],
      "name": "deleteDcaTask",
      "outputs": [],
      "stateMutability": "nonpayable",
      "type": "function"
    },
    {
      "inputs": [
        {
          "internalType": "address",
          "name": "owner",
          "type": "address"
        },
        {
          "internalType": "uint256",
          "name": "_id",
          "type": "uint256"
        }
      ],
      "name": "executeDcaTask",
      "outputs": [],
      "stateMutability": "nonpayable",
      "type": "function"
    },
    {
      "inputs": [],
      "name": "feeToken",
      "outputs": [
        {
          "internalType": "address",
          "name": "",
          "type": "address"
        }
      ],
      "stateMutability": "view",
      "type": "function"
    },
    {
      "inputs": [],
      "name": "gelato1Balance",
      "outputs": [
        {
          "internalType": "contract IGelato1Balance",
          "name": "",
          "type": "address"
        }
      ],
      "stateMutability": "view",
      "type": "function"
    },
    {
      "inputs": [],
      "name": "getDcaTasks",
      "outputs": [
        {
          "components": [
            {
              "internalType": "uint256",
              "name": "id",
              "type": "uint256"
            },
            {
              "internalType": "string",
              "name": "name",
              "type": "string"
            },
            {
              "internalType": "uint256",
              "name": "amount",
              "type": "uint256"
            },
            {
              "internalType": "uint128",
              "name": "interval",
              "type": "uint128"
            },
            {
              "internalType": "uint256",
              "name": "count",
              "type": "uint256"
            },
            {
              "internalType": "uint256",
              "name": "maxCount",
              "type": "uint256"
            },
            {
              "internalType": "bytes32",
              "name": "gelatoTaskId",
              "type": "bytes32"
            },
            {
              "components": [
                {
                  "internalType": "address",
                  "name": "token",
                  "type": "address"
                },
                {
                  "internalType": "uint8",
                  "name": "percentage",
                  "type": "uint8"
                }
              ],
              "internalType": "struct OutputSwap[]",
              "name": "outputSwaps",
              "type": "tuple[]"
            },
            {
              "internalType": "uint256",
              "name": "created",
              "type": "uint256"
            },
            {
              "internalType": "uint256",
              "name": "lastExecuted",
              "type": "uint256"
            },
            {
              "internalType": "bool",
              "name": "active",
              "type": "bool"
            }
          ],
          "internalType": "struct DcaTask[]",
          "name": "",
          "type": "tuple[]"
        }
      ],
      "stateMutability": "view",
      "type": "function"
    },
    {
      "inputs": [
        {
          "internalType": "address",
          "name": "token",
          "type": "address"
        }
      ],
      "name": "getLatestPrice",
      "outputs": [
        {
          "internalType": "int256",
          "name": "price",
          "type": "int256"
        },
        {
          "internalType": "uint8",
          "name": "decimals",
          "type": "uint8"
        }
      ],
      "stateMutability": "view",
      "type": "function"
    },
    {
      "inputs": [
        {
          "internalType": "address",
          "name": "token",
          "type": "address"
        },
        {
          "internalType": "address",
          "name": "oracle",
          "type": "address"
        }
      ],
      "name": "setOracle",
      "outputs": [],
      "stateMutability": "nonpayable",
      "type": "function"
    },
    {
      "inputs": [],
      "name": "swapRouter",
      "outputs": [
        {
          "internalType": "contract ISwapRouter",
          "name": "",
          "type": "address"
        }
      ],
      "stateMutability": "view",
      "type": "function"
    },
    {
      "inputs": [
        {
          "internalType": "address",
          "name": "",
          "type": "address"
        }
      ],
      "name": "tokenToOracle",
      "outputs": [
        {
          "internalType": "address",
          "name": "",
          "type": "address"
        }
      ],
      "stateMutability": "view",
      "type": "function"
    },
    {
      "inputs": [
        {
          "internalType": "address",
          "name": "",
          "type": "address"
        },
        {
          "internalType": "uint256",
          "name": "",
          "type": "uint256"
        }
      ],
      "name": "userTaskIds",
      "outputs": [
        {
          "internalType": "uint256",
          "name": "",
          "type": "uint256"
        }
      ],
      "stateMutability": "view",
      "type": "function"
    }
  ],
  "bytecode": "0x6101406040523480156200001257600080fd5b50604051620048f5380380620048f58339818101604052810190620000389190620004d9565b8380308173ffffffffffffffffffffffffffffffffffffffff1660808173ffffffffffffffffffffffffffffffffffffffff168152505060008273ffffffffffffffffffffffffffffffffffffffff1663573ea5756040518163ffffffff1660e01b8152600401602060405180830381865afa158015620000bd573d6000803e3d6000fd5b505050506040513d601f19601f82011682018060405250810190620000e391906200054b565b90508073ffffffffffffffffffffffffffffffffffffffff1663c415b95c6040518163ffffffff1660e01b8152600401602060405180830381865afa15801562000131573d6000803e3d6000fd5b505050506040513d601f19601f820116820180604052508101906200015791906200057d565b73ffffffffffffffffffffffffffffffffffffffff1660c08173ffffffffffffffffffffffffffffffffffffffff168152505060008373ffffffffffffffffffffffffffffffffffffffff1663cd3d4fb960026040518263ffffffff1660e01b8152600401620001c891906200062f565b602060405180830381865afa158015620001e6573d6000803e3d6000fd5b505050506040513d601f19601f820116820180604052508101906200020c91906200057d565b905060008173ffffffffffffffffffffffffffffffffffffffff1663ba1d0ff46040518163ffffffff1660e01b8152600401602060405180830381865afa1580156200025c573d6000803e3d6000fd5b505050506040513d601f19601f820116820180604052508101906200028291906200057d565b90508073ffffffffffffffffffffffffffffffffffffffff1663ded89a7c856040518263ffffffff1660e01b8152600401620002bf91906200065d565b6040805180830381865afa158015620002dc573d6000803e3d6000fd5b505050506040513d601f19601f82011682018060405250810190620003029190620006b7565b508073ffffffffffffffffffffffffffffffffffffffff1660a09073ffffffffffffffffffffffffffffffffffffffff16815250505050505050508273ffffffffffffffffffffffffffffffffffffffff1660e08173ffffffffffffffffffffffffffffffffffffffff16815250508173ffffffffffffffffffffffffffffffffffffffff166101208173ffffffffffffffffffffffffffffffffffffffff16815250508073ffffffffffffffffffffffffffffffffffffffff166101008173ffffffffffffffffffffffffffffffffffffffff168152505050505050620006fe565b600080fd5b600073ffffffffffffffffffffffffffffffffffffffff82169050919050565b60006200041782620003ea565b9050919050565b62000429816200040a565b81146200043557600080fd5b50565b60008151905062000449816200041e565b92915050565b60006200045c82620003ea565b9050919050565b600062000470826200044f565b9050919050565b620004828162000463565b81146200048e57600080fd5b50565b600081519050620004a28162000477565b92915050565b620004b3816200044f565b8114620004bf57600080fd5b50565b600081519050620004d381620004a8565b92915050565b60008060008060808587031215620004f657620004f5620003e5565b5b6000620005068782880162000438565b9450506020620005198782880162000491565b93505060406200052c87828801620004c2565b92505060606200053f87828801620004c2565b91505092959194509250565b600060208284031215620005645762000563620003e5565b5b6000620005748482850162000438565b91505092915050565b600060208284031215620005965762000595620003e5565b5b6000620005a684828501620004c2565b91505092915050565b7f4e487b7100000000000000000000000000000000000000000000000000000000600052602160045260246000fd5b60068110620005f257620005f1620005af565b5b50565b60008190506200060582620005de565b919050565b60006200061782620005f5565b9050919050565b62000629816200060a565b82525050565b60006020820190506200064660008301846200061e565b92915050565b62000657816200044f565b82525050565b60006020820190506200067460008301846200064c565b92915050565b60008115159050919050565b62000691816200067a565b81146200069d57600080fd5b50565b600081519050620006b18162000686565b92915050565b60008060408385031215620006d157620006d0620003e5565b5b6000620006e185828601620004c2565b9250506020620006f485828601620006a0565b9150509250929050565b60805160a05160c05160e05161010051610120516141566200079f60003960008181611185015261198f01526000818161059c0152818161067e015281816107ae01528181610801015281816109c801528181610b2701526112bf01526000818161082201528181610a7e0152611a2b0152600050506000610c1d01526000818161030801528181611baa01528181611d990152611e9401526141566000f3fe608060405234801561001057600080fd5b50600436106100f55760003560e01c806357fb1d671161009757806389a302711161006657806389a302711461027e5780639820c7331461029c578063b70378ef146102cc578063c31c9c07146102e8576100f5565b806357fb1d671461020a5780635c38eb3a14610228578063647846a51461024457806365515e5c14610262576100f5565b806328f150eb116100d357806328f150eb1461016557806332bb7c97146101835780633591c7f6146101a1578063499d5627146101da576100f5565b8063049aacfe146100fa57806316345f18146101185780631849fae614610149575b600080fd5b610102610306565b60405161010f9190612082565b60405180910390f35b610132600480360381019061012d91906120ef565b61032a565b604051610140929190612151565b60405180910390f35b610163600480360381019061015e91906121b0565b6104fb565b005b61016d610c1b565b60405161017a91906121ff565b60405180910390f35b61018b610c3f565b60405161019891906125cc565b60405180910390f35b6101bb60048036038101906101b691906121b0565b610fa6565b6040516101d19a99989796959493929190612674565b60405180910390f35b6101f460048036038101906101ef91906121b0565b6110b8565b6040516102019190612717565b60405180910390f35b6102126110e9565b60405161021f9190612753565b60405180910390f35b610242600480360381019061023d919061276e565b611101565b005b61024c611183565b60405161025991906121ff565b60405180910390f35b61027c600480360381019061027791906127ae565b6111a7565b005b6102866112bd565b60405161029391906121ff565b60405180910390f35b6102b660048036038101906102b191906120ef565b6112e1565b6040516102c391906121ff565b60405180910390f35b6102e660048036038101906102e19190612a85565b611314565b005b6102f0611a29565b6040516102fd9190612b59565b60405180910390f35b7f000000000000000000000000000000000000000000000000000000000000000081565b6000806000600260008573ffffffffffffffffffffffffffffffffffffffff1673ffffffffffffffffffffffffffffffffffffffff16815260200190815260200160002060009054906101000a900473ffffffffffffffffffffffffffffffffffffffff169050600073ffffffffffffffffffffffffffffffffffffffff168173ffffffffffffffffffffffffffffffffffffffff1603610400576040517f08c379a00000000000000000000000000000000000000000000000000000000081526004016103f790612bc0565b60405180910390fd5b60008190508073ffffffffffffffffffffffffffffffffffffffff1663feaf968c6040518163ffffffff1660e01b815260040160a060405180830381865afa158015610450573d6000803e3d6000fd5b505050506040513d601f19601f820116820180604052508101906104749190612c63565b9091929350909150905050809450508073ffffffffffffffffffffffffffffffffffffffff1663313ce5676040518163ffffffff1660e01b8152600401602060405180830381865afa1580156104ce573d6000803e3d6000fd5b505050506040513d601f19601f820116820180604052508101906104f29190612cf3565b92505050915091565b60008060008473ffffffffffffffffffffffffffffffffffffffff1673ffffffffffffffffffffffffffffffffffffffff168152602001908152602001600020600083815260200190815260200160002090506000816000015403610595576040517f08c379a000000000000000000000000000000000000000000000000000000000815260040161058c90612d6c565b60405180910390fd5b80600201547f000000000000000000000000000000000000000000000000000000000000000073ffffffffffffffffffffffffffffffffffffffff1663dd62ed3e85306040518363ffffffff1660e01b81526004016105f5929190612d8c565b602060405180830381865afa158015610612573d6000803e3d6000fd5b505050506040513d601f19601f820116820180604052508101906106369190612db5565b1015610677576040517f08c379a000000000000000000000000000000000000000000000000000000000815260040161066e90612e2e565b60405180910390fd5b80600201547f000000000000000000000000000000000000000000000000000000000000000073ffffffffffffffffffffffffffffffffffffffff166370a08231856040518263ffffffff1660e01b81526004016106d591906121ff565b602060405180830381865afa1580156106f2573d6000803e3d6000fd5b505050506040513d601f19601f820116820180604052508101906107169190612db5565b1015610757576040517f08c379a000000000000000000000000000000000000000000000000000000000815260040161074e90612e9a565b60405180910390fd5b42816009018190555060018160040160008282546107759190612ee9565b9250508190555080600501548160040154106107a957600081600a0160006101000a81548160ff0219169083151502179055505b6107d97f000000000000000000000000000000000000000000000000000000000000000084308460020154611a4d565b6000806107e4611ba5565b9150915060008284600201546107fa9190612f1d565b90506108477f00000000000000000000000000000000000000000000000000000000000000007f000000000000000000000000000000000000000000000000000000000000000083611c42565b6000846007018054905067ffffffffffffffff81111561086a576108696127e5565b5b6040519080825280602002602001820160405280156108a357816020015b610890611f3e565b8152602001906001900390816108885790505b50905060005b8560070180549050811015610bbd5760008660070182815481106108d0576108cf612f51565b5b906000526020600020016040518060400160405290816000820160009054906101000a900473ffffffffffffffffffffffffffffffffffffffff1673ffffffffffffffffffffffffffffffffffffffff1673ffffffffffffffffffffffffffffffffffffffff1681526020016000820160149054906101000a900460ff1660ff1660ff1681525050905060006064826020015160ff16866109719190612f80565b61097b9190612ff1565b905060008061098d846000015161032a565b91509150600081600a6109a09190613155565b83856109ac91906131a0565b6109b69190613218565b905060006040518061010001604052807f000000000000000000000000000000000000000000000000000000000000000073ffffffffffffffffffffffffffffffffffffffff168152602001876000015173ffffffffffffffffffffffffffffffffffffffff168152602001610bb862ffffff1681526020018f73ffffffffffffffffffffffffffffffffffffffff168152602001428152602001868152602001838152602001600073ffffffffffffffffffffffffffffffffffffffff16815250905060007f000000000000000000000000000000000000000000000000000000000000000073ffffffffffffffffffffffffffffffffffffffff1663414bf389836040518263ffffffff1660e01b8152600401610ad59190613351565b6020604051808303816000875af1158015610af4573d6000803e3d6000fd5b505050506040513d601f19601f82011682018060405250810190610b189190612db5565b905060405180608001604052807f000000000000000000000000000000000000000000000000000000000000000073ffffffffffffffffffffffffffffffffffffffff168152602001886000015173ffffffffffffffffffffffffffffffffffffffff16815260200187815260200182815250898981518110610b9e57610b9d612f51565b5b60200260200101819052505050505050505080806001019150506108a9565b508673ffffffffffffffffffffffffffffffffffffffff167fdf53dd9b16493a945c5f70fdfff6fac32f2ebedaaaf34a327a9eb308eeb17c0a87838787604051610c0a9493929190613471565b60405180910390a250505050505050565b7f000000000000000000000000000000000000000000000000000000000000000081565b60606000600160003373ffffffffffffffffffffffffffffffffffffffff1673ffffffffffffffffffffffffffffffffffffffff16815260200190815260200160002090506000818054905067ffffffffffffffff811115610ca457610ca36127e5565b5b604051908082528060200260200182016040528015610cdd57816020015b610cca611f92565b815260200190600190039081610cc25790505b50905060005b8280549050811015610f9d576000803373ffffffffffffffffffffffffffffffffffffffff1673ffffffffffffffffffffffffffffffffffffffff1681526020019081526020016000206000848381548110610d4257610d41612f51565b5b906000526020600020015481526020019081526020016000206040518061016001604052908160008201548152602001600182018054610d81906134ec565b80601f0160208091040260200160405190810160405280929190818152602001828054610dad906134ec565b8015610dfa5780601f10610dcf57610100808354040283529160200191610dfa565b820191906000526020600020905b815481529060010190602001808311610ddd57829003601f168201915b50505050508152602001600282015481526020016003820160009054906101000a90046fffffffffffffffffffffffffffffffff166fffffffffffffffffffffffffffffffff166fffffffffffffffffffffffffffffffff16815260200160048201548152602001600582015481526020016006820154815260200160078201805480602002602001604051908101604052809291908181526020016000905b82821015610f3b578382906000526020600020016040518060400160405290816000820160009054906101000a900473ffffffffffffffffffffffffffffffffffffffff1673ffffffffffffffffffffffffffffffffffffffff1673ffffffffffffffffffffffffffffffffffffffff1681526020016000820160149054906101000a900460ff1660ff1660ff168152505081526020019060010190610e9a565b5050505081526020016008820154815260200160098201548152602001600a820160009054906101000a900460ff161515151581525050828281518110610f8557610f84612f51565b5b60200260200101819052508080600101915050610ce3565b50809250505090565b600060205281600052604060002060205280600052604060002060009150915050806000015490806001018054610fdc906134ec565b80601f0160208091040260200160405190810160405280929190818152602001828054611008906134ec565b80156110555780601f1061102a57610100808354040283529160200191611055565b820191906000526020600020905b81548152906001019060200180831161103857829003601f168201915b5050505050908060020154908060030160009054906101000a90046fffffffffffffffffffffffffffffffff169080600401549080600501549080600601549080600801549080600901549080600a0160009054906101000a900460ff1690508a565b600160205281600052604060002081815481106110d457600080fd5b90600052602060002001600091509150505481565b737506c12a824d73d9b08564d5afc22c949434755e81565b80600260008473ffffffffffffffffffffffffffffffffffffffff1673ffffffffffffffffffffffffffffffffffffffff16815260200190815260200160002060006101000a81548173ffffffffffffffffffffffffffffffffffffffff021916908373ffffffffffffffffffffffffffffffffffffffff1602179055505050565b7f000000000000000000000000000000000000000000000000000000000000000081565b60008060003373ffffffffffffffffffffffffffffffffffffffff1673ffffffffffffffffffffffffffffffffffffffff168152602001908152602001600020600083815260200190815260200160002090506000816000015403611241576040517f08c379a000000000000000000000000000000000000000000000000000000000815260040161123890612d6c565b60405180910390fd5b600081600a0160006101000a81548160ff02191690831515021790555061126b8160060154611d97565b3373ffffffffffffffffffffffffffffffffffffffff167f169c5f40d9f8910b814ad043091ef3d86d4679da6bab9c6b2bb8d519313bf197836040516112b19190612717565b60405180910390a25050565b7f000000000000000000000000000000000000000000000000000000000000000081565b60026020528060005260406000206000915054906101000a900473ffffffffffffffffffffffffffffffffffffffff1681565b6000805b82518110156113ef57600083828151811061133657611335612f51565b5b60200260200101516020015160ff161180156113745750606483828151811061136257611361612f51565b5b60200260200101516020015160ff1611155b6113b3576040517f08c379a00000000000000000000000000000000000000000000000000000000081526004016113aa9061358f565b60405180910390fd5b8281815181106113c6576113c5612f51565b5b60200260200101516020015160ff16826113e09190612ee9565b91508080600101915050611318565b5060648114611433576040517f08c379a000000000000000000000000000000000000000000000000000000000815260040161142a906135fb565b60405180910390fd5b60008311611476576040517f08c379a000000000000000000000000000000000000000000000000000000000815260040161146d90613667565b60405180910390fd5b6000846fffffffffffffffffffffffffffffffff16116114cb576040517f08c379a00000000000000000000000000000000000000000000000000000000081526004016114c2906136d3565b60405180910390fd5b6000851161150e576040517f08c379a00000000000000000000000000000000000000000000000000000000081526004016115059061373f565b60405180910390fd5b600042336040516020016115239291906137c8565b6040516020818303038152906040528051906020012060001c905060008060003373ffffffffffffffffffffffffffffffffffffffff1673ffffffffffffffffffffffffffffffffffffffff16815260200190815260200160002060008381526020019081526020016000209050818160000181905550878160010190816115ab9190613996565b50868160020181905550858160030160006101000a8154816fffffffffffffffffffffffffffffffff02191690836fffffffffffffffffffffffffffffffff160217905550600081600401819055508481600501819055506000801b8160060181905550428160080181905550428160090181905550600181600a0160006101000a81548160ff02191690831515021790555060005b8451811015611705578160070185828151811061166157611660612f51565b5b60200260200101519080600181540180825580915050600190039060005260206000200160009091909190915060008201518160000160006101000a81548173ffffffffffffffffffffffffffffffffffffffff021916908373ffffffffffffffffffffffffffffffffffffffff16021790555060208201518160000160146101000a81548160ff021916908360ff16021790555050508080600101915050611641565b50600160003373ffffffffffffffffffffffffffffffffffffffff1673ffffffffffffffffffffffffffffffffffffffff16815260200190815260200160002082908060018154018082558091505060019003906000526020600020016000909190919091505560003073ffffffffffffffffffffffffffffffffffffffff16631849fae63384600001546040516024016117a1929190613a68565b604051602081830303815290604052915060e01b6020820180517bffffffffffffffffffffffffffffffffffffffffffffffffffffffff8381831617835250505050905060006040518060400160405280600267ffffffffffffffff81111561180d5761180c6127e5565b5b60405190808252806020026020018201604052801561183b5781602001602082028036833780820191505090505b508152602001600267ffffffffffffffff81111561185c5761185b6127e5565b5b60405190808252806020026020018201604052801561188f57816020015b606081526020019060019003908161187a5790505b508152509050600281600001516000815181106118af576118ae612f51565b5b602002602001019060058111156118c9576118c8613a91565b5b908160058111156118dd576118dc613a91565b5b81525050600581600001516001815181106118fb576118fa612f51565b5b6020026020010190600581111561191557611914613a91565b5b9081600581111561192957611928613a91565b5b81525050611935611e25565b816020015160008151811061194d5761194c612f51565b5b60200260200101819052506119624289611e3c565b816020015160018151811061197a57611979612f51565b5b602002602001018190525060006119b33084847f0000000000000000000000000000000000000000000000000000000000000000611e90565b90508084600601819055503373ffffffffffffffffffffffffffffffffffffffff167fa7bee0be4d6ffe18384b41b27aeab1345080238ee47065d993ac88b24ed9c733868d8d8d604051611a0a9493929190613ac0565b60405180910390a2611a1c33866104fb565b5050505050505050505050565b7f000000000000000000000000000000000000000000000000000000000000000081565b6000808573ffffffffffffffffffffffffffffffffffffffff166323b872dd60e01b868686604051602401611a8493929190613b0c565b604051602081830303815290604052907bffffffffffffffffffffffffffffffffffffffffffffffffffffffff19166020820180517bffffffffffffffffffffffffffffffffffffffffffffffffffffffff8381831617835250505050604051611aee9190613b8a565b6000604051808303816000865af19150503d8060008114611b2b576040519150601f19603f3d011682016040523d82523d6000602084013e611b30565b606091505b5091509150818015611b5e5750600081511480611b5d575080806020019051810190611b5c9190613bcd565b5b5b611b9d576040517f08c379a0000000000000000000000000000000000000000000000000000000008152600401611b9490613c46565b60405180910390fd5b505050505050565b6000807f000000000000000000000000000000000000000000000000000000000000000073ffffffffffffffffffffffffffffffffffffffff1663b810c6366040518163ffffffff1660e01b81526004016040805180830381865afa158015611c12573d6000803e3d6000fd5b505050506040513d601f19601f82011682018060405250810190611c369190613c7b565b80925081935050509091565b6000808473ffffffffffffffffffffffffffffffffffffffff1663095ea7b360e01b8585604051602401611c77929190613a68565b604051602081830303815290604052907bffffffffffffffffffffffffffffffffffffffffffffffffffffffff19166020820180517bffffffffffffffffffffffffffffffffffffffffffffffffffffffff8381831617835250505050604051611ce19190613b8a565b6000604051808303816000865af19150503d8060008114611d1e576040519150601f19603f3d011682016040523d82523d6000602084013e611d23565b606091505b5091509150818015611d515750600081511480611d50575080806020019051810190611d4f9190613bcd565b5b5b611d90576040517f08c379a0000000000000000000000000000000000000000000000000000000008152600401611d8790613d07565b60405180910390fd5b5050505050565b7f000000000000000000000000000000000000000000000000000000000000000073ffffffffffffffffffffffffffffffffffffffff1663ee8ca3b5826040518263ffffffff1660e01b8152600401611df09190613d27565b600060405180830381600087803b158015611e0a57600080fd5b505af1158015611e1e573d6000803e3d6000fd5b5050505050565b606060405180602001604052806000815250905090565b606060008383604051602001611e53929190613d42565b6040516020818303038152906040529050600081604051602001611e78929190613dfd565b60405160208183030381529060405291505092915050565b60007f000000000000000000000000000000000000000000000000000000000000000073ffffffffffffffffffffffffffffffffffffffff16633323b467868686866040518563ffffffff1660e01b8152600401611ef19493929190614074565b6020604051808303816000875af1158015611f10573d6000803e3d6000fd5b505050506040513d601f19601f82011682018060405250810190611f3491906140f3565b9050949350505050565b6040518060800160405280600073ffffffffffffffffffffffffffffffffffffffff168152602001600073ffffffffffffffffffffffffffffffffffffffff16815260200160008152602001600081525090565b60405180610160016040528060008152602001606081526020016000815260200160006fffffffffffffffffffffffffffffffff1681526020016000815260200160008152602001600080191681526020016060815260200160008152602001600081526020016000151581525090565b600073ffffffffffffffffffffffffffffffffffffffff82169050919050565b6000819050919050565b600061204861204361203e84612003565b612023565b612003565b9050919050565b600061205a8261202d565b9050919050565b600061206c8261204f565b9050919050565b61207c81612061565b82525050565b60006020820190506120976000830184612073565b92915050565b6000604051905090565b600080fd5b600080fd5b60006120bc82612003565b9050919050565b6120cc816120b1565b81146120d757600080fd5b50565b6000813590506120e9816120c3565b92915050565b600060208284031215612105576121046120a7565b5b6000612113848285016120da565b91505092915050565b6000819050919050565b61212f8161211c565b82525050565b600060ff82169050919050565b61214b81612135565b82525050565b60006040820190506121666000830185612126565b6121736020830184612142565b9392505050565b6000819050919050565b61218d8161217a565b811461219857600080fd5b50565b6000813590506121aa81612184565b92915050565b600080604083850312156121c7576121c66120a7565b5b60006121d5858286016120da565b92505060206121e68582860161219b565b9150509250929050565b6121f9816120b1565b82525050565b600060208201905061221460008301846121f0565b92915050565b600081519050919050565b600082825260208201905092915050565b6000819050602082019050919050565b61224f8161217a565b82525050565b600081519050919050565b600082825260208201905092915050565b60005b8381101561228f578082015181840152602081019050612274565b60008484015250505050565b6000601f19601f8301169050919050565b60006122b782612255565b6122c18185612260565b93506122d1818560208601612271565b6122da8161229b565b840191505092915050565b60006fffffffffffffffffffffffffffffffff82169050919050565b61230a816122e5565b82525050565b6000819050919050565b61232381612310565b82525050565b600081519050919050565b600082825260208201905092915050565b6000819050602082019050919050565b61235e816120b1565b82525050565b61236d81612135565b82525050565b6040820160008201516123896000850182612355565b50602082015161239c6020850182612364565b50505050565b60006123ae8383612373565b60408301905092915050565b6000602082019050919050565b60006123d282612329565b6123dc8185612334565b93506123e783612345565b8060005b838110156124185781516123ff88826123a2565b975061240a836123ba565b9250506001810190506123eb565b5085935050505092915050565b60008115159050919050565b61243a81612425565b82525050565b6000610160830160008301516124596000860182612246565b506020830151848203602086015261247182826122ac565b91505060408301516124866040860182612246565b5060608301516124996060860182612301565b5060808301516124ac6080860182612246565b5060a08301516124bf60a0860182612246565b5060c08301516124d260c086018261231a565b5060e083015184820360e08601526124ea82826123c7565b915050610100830151612501610100860182612246565b50610120830151612516610120860182612246565b5061014083015161252b610140860182612431565b508091505092915050565b60006125428383612440565b905092915050565b6000602082019050919050565b60006125628261221a565b61256c8185612225565b93508360208202850161257e85612236565b8060005b858110156125ba578484038952815161259b8582612536565b94506125a68361254a565b925060208a01995050600181019050612582565b50829750879550505050505092915050565b600060208201905081810360008301526125e68184612557565b905092915050565b6125f78161217a565b82525050565b600082825260208201905092915050565b600061261982612255565b61262381856125fd565b9350612633818560208601612271565b61263c8161229b565b840191505092915050565b612650816122e5565b82525050565b61265f81612310565b82525050565b61266e81612425565b82525050565b60006101408201905061268a600083018d6125ee565b818103602083015261269c818c61260e565b90506126ab604083018b6125ee565b6126b8606083018a612647565b6126c560808301896125ee565b6126d260a08301886125ee565b6126df60c0830187612656565b6126ec60e08301866125ee565b6126fa6101008301856125ee565b612708610120830184612665565b9b9a5050505050505050505050565b600060208201905061272c60008301846125ee565b92915050565b600061273d8261204f565b9050919050565b61274d81612732565b82525050565b60006020820190506127686000830184612744565b92915050565b60008060408385031215612785576127846120a7565b5b6000612793858286016120da565b92505060206127a4858286016120da565b9150509250929050565b6000602082840312156127c4576127c36120a7565b5b60006127d28482850161219b565b91505092915050565b600080fd5b600080fd5b7f4e487b7100000000000000000000000000000000000000000000000000000000600052604160045260246000fd5b61281d8261229b565b810181811067ffffffffffffffff8211171561283c5761283b6127e5565b5b80604052505050565b600061284f61209d565b905061285b8282612814565b919050565b600067ffffffffffffffff82111561287b5761287a6127e5565b5b6128848261229b565b9050602081019050919050565b82818337600083830152505050565b60006128b36128ae84612860565b612845565b9050828152602081018484840111156128cf576128ce6127e0565b5b6128da848285612891565b509392505050565b600082601f8301126128f7576128f66127db565b5b81356129078482602086016128a0565b91505092915050565b612919816122e5565b811461292457600080fd5b50565b60008135905061293681612910565b92915050565b600067ffffffffffffffff821115612957576129566127e5565b5b602082029050602081019050919050565b600080fd5b600080fd5b61297b81612135565b811461298657600080fd5b50565b60008135905061299881612972565b92915050565b6000604082840312156129b4576129b361296d565b5b6129be6040612845565b905060006129ce848285016120da565b60008301525060206129e284828501612989565b60208301525092915050565b6000612a016129fc8461293c565b612845565b90508083825260208201905060408402830185811115612a2457612a23612968565b5b835b81811015612a4d5780612a39888261299e565b845260208401935050604081019050612a26565b5050509392505050565b600082601f830112612a6c57612a6b6127db565b5b8135612a7c8482602086016129ee565b91505092915050565b600080600080600060a08688031215612aa157612aa06120a7565b5b600086013567ffffffffffffffff811115612abf57612abe6120ac565b5b612acb888289016128e2565b9550506020612adc8882890161219b565b9450506040612aed88828901612927565b9350506060612afe8882890161219b565b925050608086013567ffffffffffffffff811115612b1f57612b1e6120ac565b5b612b2b88828901612a57565b9150509295509295909350565b6000612b438261204f565b9050919050565b612b5381612b38565b82525050565b6000602082019050612b6e6000830184612b4a565b92915050565b7f4f7261636c65206e6f742073657420666f72207468697320746f6b656e000000600082015250565b6000612baa601d836125fd565b9150612bb582612b74565b602082019050919050565b60006020820190508181036000830152612bd981612b9d565b9050919050565b600069ffffffffffffffffffff82169050919050565b612bff81612be0565b8114612c0a57600080fd5b50565b600081519050612c1c81612bf6565b92915050565b612c2b8161211c565b8114612c3657600080fd5b50565b600081519050612c4881612c22565b92915050565b600081519050612c5d81612184565b92915050565b600080600080600060a08688031215612c7f57612c7e6120a7565b5b6000612c8d88828901612c0d565b9550506020612c9e88828901612c39565b9450506040612caf88828901612c4e565b9350506060612cc088828901612c4e565b9250506080612cd188828901612c0d565b9150509295509295909350565b600081519050612ced81612972565b92915050565b600060208284031215612d0957612d086120a7565b5b6000612d1784828501612cde565b91505092915050565b7f5461736b20646f6573206e6f7420657869737400000000000000000000000000600082015250565b6000612d566013836125fd565b9150612d6182612d20565b602082019050919050565b60006020820190508181036000830152612d8581612d49565b9050919050565b6000604082019050612da160008301856121f0565b612dae60208301846121f0565b9392505050565b600060208284031215612dcb57612dca6120a7565b5b6000612dd984828501612c4e565b91505092915050565b7f496e73756666696369656e7420616c6c6f77616e636520666f72205553444300600082015250565b6000612e18601f836125fd565b9150612e2382612de2565b602082019050919050565b60006020820190508181036000830152612e4781612e0b565b9050919050565b7f496e73756666696369656e7420555344432062616c616e636500000000000000600082015250565b6000612e846019836125fd565b9150612e8f82612e4e565b602082019050919050565b60006020820190508181036000830152612eb381612e77565b9050919050565b7f4e487b7100000000000000000000000000000000000000000000000000000000600052601160045260246000fd5b6000612ef48261217a565b9150612eff8361217a565b9250828201905080821115612f1757612f16612eba565b5b92915050565b6000612f288261217a565b9150612f338361217a565b9250828203905081811115612f4b57612f4a612eba565b5b92915050565b7f4e487b7100000000000000000000000000000000000000000000000000000000600052603260045260246000fd5b6000612f8b8261217a565b9150612f968361217a565b9250828202612fa48161217a565b91508282048414831517612fbb57612fba612eba565b5b5092915050565b7f4e487b7100000000000000000000000000000000000000000000000000000000600052601260045260246000fd5b6000612ffc8261217a565b91506130078361217a565b92508261301757613016612fc2565b5b828204905092915050565b60008160011c9050919050565b6000808291508390505b60018511156130795780860481111561305557613054612eba565b5b60018516156130645780820291505b808102905061307285613022565b9450613039565b94509492505050565b600082613092576001905061314e565b816130a0576000905061314e565b81600181146130b657600281146130c0576130ef565b600191505061314e565b60ff8411156130d2576130d1612eba565b5b8360020a9150848211156130e9576130e8612eba565b5b5061314e565b5060208310610133831016604e8410600b84101617156131245782820a90508381111561311f5761311e612eba565b5b61314e565b613131848484600161302f565b9250905081840481111561314857613147612eba565b5b81810290505b9392505050565b60006131608261217a565b915061316b83612135565b92506131987fffffffffffffffffffffffffffffffffffffffffffffffffffffffffffffffff8484613082565b905092915050565b60006131ab8261211c565b91506131b68361211c565b92508282026131c48161211c565b91507f800000000000000000000000000000000000000000000000000000000000000084146000841216156131fc576131fb612eba565b5b828205841483151761321157613210612eba565b5b5092915050565b60006132238261211c565b915061322e8361211c565b92508261323e5761323d612fc2565b5b600160000383147f80000000000000000000000000000000000000000000000000000000000000008314161561327757613276612eba565b5b828205905092915050565b600062ffffff82169050919050565b61329a81613282565b82525050565b6132a981612003565b82525050565b610100820160008201516132c66000850182612355565b5060208201516132d96020850182612355565b5060408201516132ec6040850182613291565b5060608201516132ff6060850182612355565b5060808201516133126080850182612246565b5060a082015161332560a0850182612246565b5060c082015161333860c0850182612246565b5060e082015161334b60e08501826132a0565b50505050565b60006101008201905061336760008301846132af565b92915050565b600081519050919050565b600082825260208201905092915050565b6000819050602082019050919050565b6080820160008201516133af6000850182612355565b5060208201516133c26020850182612355565b5060408201516133d56040850182612246565b5060608201516133e86060850182612246565b50505050565b60006133fa8383613399565b60808301905092915050565b6000602082019050919050565b600061341e8261336d565b6134288185613378565b935061343383613389565b8060005b8381101561346457815161344b88826133ee565b975061345683613406565b925050600181019050613437565b5085935050505092915050565b600060808201905061348660008301876125ee565b81810360208301526134988186613413565b90506134a760408301856125ee565b6134b460608301846121f0565b95945050505050565b7f4e487b7100000000000000000000000000000000000000000000000000000000600052602260045260246000fd5b6000600282049050600182168061350457607f821691505b602082108103613517576135166134bd565b5b50919050565b7f50657263656e74616765206d757374206265206265747765656e203120616e6460008201527f2031303000000000000000000000000000000000000000000000000000000000602082015250565b60006135796024836125fd565b91506135848261351d565b604082019050919050565b600060208201905081810360008301526135a88161356c565b9050919050565b7f546f74616c2070657263656e74616765206d7573742062652031303000000000600082015250565b60006135e5601c836125fd565b91506135f0826135af565b602082019050919050565b60006020820190508181036000830152613614816135d8565b9050919050565b7f4d617820636f756e74206d7573742062652067726561746572207468616e2030600082015250565b60006136516020836125fd565b915061365c8261361b565b602082019050919050565b6000602082019050818103600083015261368081613644565b9050919050565b7f496e74657276616c206d7573742062652067726561746572207468616e203000600082015250565b60006136bd601f836125fd565b91506136c882613687565b602082019050919050565b600060208201905081810360008301526136ec816136b0565b9050919050565b7f416d6f756e74206d7573742062652067726561746572207468616e2030000000600082015250565b6000613729601d836125fd565b9150613734826136f3565b602082019050919050565b600060208201905081810360008301526137588161371c565b9050919050565b6000819050919050565b61377a6137758261217a565b61375f565b82525050565b60008160601b9050919050565b600061379882613780565b9050919050565b60006137aa8261378d565b9050919050565b6137c26137bd826120b1565b61379f565b82525050565b60006137d48285613769565b6020820191506137e482846137b1565b6014820191508190509392505050565b60008190508160005260206000209050919050565b60006020601f8301049050919050565b600082821b905092915050565b6000600883026138567fffffffffffffffffffffffffffffffffffffffffffffffffffffffffffffffff82613819565b6138608683613819565b95508019841693508086168417925050509392505050565b600061389361388e6138898461217a565b612023565b61217a565b9050919050565b6000819050919050565b6138ad83613878565b6138c16138b98261389a565b848454613826565b825550505050565b600090565b6138d66138c9565b6138e18184846138a4565b505050565b5b81811015613905576138fa6000826138ce565b6001810190506138e7565b5050565b601f82111561394a5761391b816137f4565b61392484613809565b81016020851015613933578190505b61394761393f85613809565b8301826138e6565b50505b505050565b600082821c905092915050565b600061396d6000198460080261394f565b1980831691505092915050565b6000613986838361395c565b9150826002028217905092915050565b61399f82612255565b67ffffffffffffffff8111156139b8576139b76127e5565b5b6139c282546134ec565b6139cd828285613909565b600060209050601f831160018114613a0057600084156139ee578287015190505b6139f8858261397a565b865550613a60565b601f198416613a0e866137f4565b60005b82811015613a3657848901518255600182019150602085019450602081019050613a11565b86831015613a535784890151613a4f601f89168261395c565b8355505b6001600288020188555050505b505050505050565b6000604082019050613a7d60008301856121f0565b613a8a60208301846125ee565b9392505050565b7f4e487b7100000000000000000000000000000000000000000000000000000000600052602160045260246000fd5b6000608082019050613ad560008301876125ee565b8181036020830152613ae7818661260e565b9050613af660408301856125ee565b613b036060830184612647565b95945050505050565b6000606082019050613b2160008301866121f0565b613b2e60208301856121f0565b613b3b60408301846125ee565b949350505050565b600081519050919050565b600081905092915050565b6000613b6482613b43565b613b6e8185613b4e565b9350613b7e818560208601612271565b80840191505092915050565b6000613b968284613b59565b915081905092915050565b613baa81612425565b8114613bb557600080fd5b50565b600081519050613bc781613ba1565b92915050565b600060208284031215613be357613be26120a7565b5b6000613bf184828501613bb8565b91505092915050565b7f5354460000000000000000000000000000000000000000000000000000000000600082015250565b6000613c306003836125fd565b9150613c3b82613bfa565b602082019050919050565b60006020820190508181036000830152613c5f81613c23565b9050919050565b600081519050613c75816120c3565b92915050565b60008060408385031215613c9257613c916120a7565b5b6000613ca085828601612c4e565b9250506020613cb185828601613c66565b9150509250929050565b7f5341000000000000000000000000000000000000000000000000000000000000600082015250565b6000613cf16002836125fd565b9150613cfc82613cbb565b602082019050919050565b60006020820190508181036000830152613d2081613ce4565b9050919050565b6000602082019050613d3c6000830184612656565b92915050565b6000604082019050613d576000830185612647565b613d646020830184612647565b9392505050565b60048110613d7c57613d7b613a91565b5b50565b6000819050613d8d82613d6b565b919050565b6000613d9d82613d7f565b9050919050565b613dad81613d92565b82525050565b600082825260208201905092915050565b6000613dcf82613b43565b613dd98185613db3565b9350613de9818560208601612271565b613df28161229b565b840191505092915050565b6000604082019050613e126000830185613da4565b8181036020830152613e248184613dc4565b90509392505050565b600081519050919050565b600082825260208201905092915050565b6000819050602082019050919050565b60068110613e6a57613e69613a91565b5b50565b6000819050613e7b82613e59565b919050565b6000613e8b82613e6d565b9050919050565b613e9b81613e80565b82525050565b6000613ead8383613e92565b60208301905092915050565b6000602082019050919050565b6000613ed182613e2d565b613edb8185613e38565b9350613ee683613e49565b8060005b83811015613f17578151613efe8882613ea1565b9750613f0983613eb9565b925050600181019050613eea565b5085935050505092915050565b600081519050919050565b600082825260208201905092915050565b6000819050602082019050919050565b600082825260208201905092915050565b6000613f6c82613b43565b613f768185613f50565b9350613f86818560208601612271565b613f8f8161229b565b840191505092915050565b6000613fa68383613f61565b905092915050565b6000602082019050919050565b6000613fc682613f24565b613fd08185613f2f565b935083602082028501613fe285613f40565b8060005b8581101561401e5784840389528151613fff8582613f9a565b945061400a83613fae565b925060208a01995050600181019050613fe6565b50829750879550505050505092915050565b6000604083016000830151848203600086015261404d8282613ec6565b915050602083015184820360208601526140678282613fbb565b9150508091505092915050565b600060808201905061408960008301876121f0565b818103602083015261409b8186613dc4565b905081810360408301526140af8185614030565b90506140be60608301846121f0565b95945050505050565b6140d081612310565b81146140db57600080fd5b50565b6000815190506140ed816140c7565b92915050565b600060208284031215614109576141086120a7565b5b6000614117848285016140de565b9150509291505056fea2646970667358221220a806aff6c6dc4f77f2f113c346d3b0c8b958e87afeb3cebb34dde1cfdb0f172b64736f6c63430008180033",
  "linkReferences": {},
  "deployedLinkReferences": {}
}