{
  "_format": "hh-sol-artifact-1",
  "contractName": "SimpleSwap",
  "sourceName": "contracts/SimpleSwap.sol",
  "abi": [
    {
      "inputs": [
        {
          "internalType": "contract ISwapRouter",
          "name": "_swapRouter",
          "type": "address"
        },
        {
          "internalType": "address",
          "name": "_DAI",
          "type": "address"
        },
        {
          "internalType": "address",
          "name": "_WETH9",
          "type": "address"
        },
        {
          "internalType": "address",
          "name": "_USDC",
          "type": "address"
        }
      ],
      "stateMutability": "nonpayable",
      "type": "constructor"
    },
    {
      "inputs": [],
      "name": "DAI",
      "outputs": [
        {
          "internalType": "address",
          "name": "",
          "type": "address"
        }
      ],
      "stateMutability": "view",
      "type": "function"
    },
    {
      "inputs": [],
      "name": "USDC",
      "outputs": [
        {
          "internalType": "address",
          "name": "",
          "type": "address"
        }
      ],
      "stateMutability": "view",
      "type": "function"
    },
    {
      "inputs": [],
      "name": "WETH9",
      "outputs": [
        {
          "internalType": "address",
          "name": "",
          "type": "address"
        }
      ],
      "stateMutability": "view",
      "type": "function"
    },
    {
      "inputs": [
        {
          "internalType": "uint256",
          "name": "amount",
          "type": "uint256"
        },
        {
          "components": [
            {
              "internalType": "address",
              "name": "token",
              "type": "address"
            },
            {
              "internalType": "uint8",
              "name": "percentage",
              "type": "uint8"
            }
          ],
          "internalType": "struct OutputSwap[]",
          "name": "outputSwaps",
          "type": "tuple[]"
        }
      ],
      "name": "executeMultiSwap",
      "outputs": [],
      "stateMutability": "nonpayable",
      "type": "function"
    },
    {
      "inputs": [],
      "name": "feeTier",
      "outputs": [
        {
          "internalType": "uint24",
          "name": "",
          "type": "uint24"
        }
      ],
      "stateMutability": "view",
      "type": "function"
    },
    {
      "inputs": [],
      "name": "swapRouter",
      "outputs": [
        {
          "internalType": "contract ISwapRouter",
          "name": "",
          "type": "address"
        }
      ],
      "stateMutability": "view",
      "type": "function"
    },
    {
      "inputs": [
        {
          "internalType": "uint256",
          "name": "amountIn",
          "type": "uint256"
        }
      ],
      "name": "swapWETHForDAI",
      "outputs": [
        {
          "internalType": "uint256",
          "name": "amountOut",
          "type": "uint256"
        }
      ],
      "stateMutability": "nonpayable",
      "type": "function"
    },
    {
      "inputs": [
        {
          "internalType": "uint256",
          "name": "amountIn",
          "type": "uint256"
        }
      ],
      "name": "swapWETHForUSDC",
      "outputs": [
        {
          "internalType": "uint256",
          "name": "amountOut",
          "type": "uint256"
        }
      ],
      "stateMutability": "nonpayable",
      "type": "function"
    }
  ],
  "bytecode": "0x6101006040523480156200001257600080fd5b5060405162001706380380620017068339818101604052810190620000389190620001c1565b8373ffffffffffffffffffffffffffffffffffffffff1660808173ffffffffffffffffffffffffffffffffffffffff16815250508273ffffffffffffffffffffffffffffffffffffffff1660a08173ffffffffffffffffffffffffffffffffffffffff16815250508173ffffffffffffffffffffffffffffffffffffffff1660c08173ffffffffffffffffffffffffffffffffffffffff16815250508073ffffffffffffffffffffffffffffffffffffffff1660e08173ffffffffffffffffffffffffffffffffffffffff16815250505050505062000233565b600080fd5b600073ffffffffffffffffffffffffffffffffffffffff82169050919050565b6000620001448262000117565b9050919050565b6000620001588262000137565b9050919050565b6200016a816200014b565b81146200017657600080fd5b50565b6000815190506200018a816200015f565b92915050565b6200019b8162000137565b8114620001a757600080fd5b50565b600081519050620001bb8162000190565b92915050565b60008060008060808587031215620001de57620001dd62000112565b5b6000620001ee8782880162000179565b94505060206200020187828801620001aa565b93505060406200021487828801620001aa565b92505060606200022787828801620001aa565b91505092959194509250565b60805160a05160c05160e051611422620002e4600039600081816101a4015281816101e1015281816102850152818161061401526107430152600081816103f30152818161041f01528181610475015281816105ea01528181610685015281816106b101526107070152600081816104b1015261065c0152600081816102020152818161033a015281816104400152818161054601528181610638015281816106d201526107d801526114226000f3fe608060405234801561001057600080fd5b50600436106100885760003560e01c806389a302711161005b57806389a3027114610115578063c31c9c0714610133578063e0bab4c414610151578063edd303a41461016f57610088565b806324bbcd0f1461008d5780632ed5016f146100a95780634aa4a4fc146100d957806372f5d98a146100f7575b600080fd5b6100a760048036038101906100a29190610db6565b61019f565b005b6100c360048036038101906100be9190610e12565b6103ec565b6040516100d09190610e4e565b60405180910390f35b6100e16105e8565b6040516100ee9190610e78565b60405180910390f35b6100ff61060c565b60405161010c9190610eb1565b60405180910390f35b61011d610612565b60405161012a9190610e78565b60405180910390f35b61013b610636565b6040516101489190610f2b565b60405180910390f35b61015961065a565b6040516101669190610e78565b60405180910390f35b61018960048036038101906101849190610e12565b61067e565b6040516101969190610e4e565b60405180910390f35b6101cb7f000000000000000000000000000000000000000000000000000000000000000033308561087a565b60008081846101da9190610f75565b90506102277f00000000000000000000000000000000000000000000000000000000000000007f0000000000000000000000000000000000000000000000000000000000000000836109d2565b60005b83518110156103e557600084828151811061024857610247610fa9565b5b6020026020010151905060006064826020015160ff16856102699190610fd8565b6102739190611049565b905060006040518061010001604052807f000000000000000000000000000000000000000000000000000000000000000073ffffffffffffffffffffffffffffffffffffffff168152602001846000015173ffffffffffffffffffffffffffffffffffffffff168152602001610bb862ffffff1681526020013373ffffffffffffffffffffffffffffffffffffffff16815260200142815260200183815260200160008152602001600073ffffffffffffffffffffffffffffffffffffffff1681525090507f000000000000000000000000000000000000000000000000000000000000000073ffffffffffffffffffffffffffffffffffffffff1663414bf389826040518263ffffffff1660e01b81526004016103919190611158565b6020604051808303816000875af11580156103b0573d6000803e3d6000fd5b505050506040513d601f19601f820116820180604052508101906103d49190611189565b50505050808060010191505061022a565b5050505050565b600061041a7f000000000000000000000000000000000000000000000000000000000000000033308561087a565b6104657f00000000000000000000000000000000000000000000000000000000000000007f0000000000000000000000000000000000000000000000000000000000000000846109d2565b60006040518061010001604052807f000000000000000000000000000000000000000000000000000000000000000073ffffffffffffffffffffffffffffffffffffffff1681526020017f000000000000000000000000000000000000000000000000000000000000000073ffffffffffffffffffffffffffffffffffffffff168152602001610bb862ffffff1681526020013373ffffffffffffffffffffffffffffffffffffffff16815260200142815260200184815260200160008152602001600073ffffffffffffffffffffffffffffffffffffffff1681525090507f000000000000000000000000000000000000000000000000000000000000000073ffffffffffffffffffffffffffffffffffffffff1663414bf389826040518263ffffffff1660e01b815260040161059d9190611158565b6020604051808303816000875af11580156105bc573d6000803e3d6000fd5b505050506040513d601f19601f820116820180604052508101906105e09190611189565b915050919050565b7f000000000000000000000000000000000000000000000000000000000000000081565b610bb881565b7f000000000000000000000000000000000000000000000000000000000000000081565b7f000000000000000000000000000000000000000000000000000000000000000081565b7f000000000000000000000000000000000000000000000000000000000000000081565b60006106ac7f000000000000000000000000000000000000000000000000000000000000000033308561087a565b6106f77f00000000000000000000000000000000000000000000000000000000000000007f0000000000000000000000000000000000000000000000000000000000000000846109d2565b60006040518061010001604052807f000000000000000000000000000000000000000000000000000000000000000073ffffffffffffffffffffffffffffffffffffffff1681526020017f000000000000000000000000000000000000000000000000000000000000000073ffffffffffffffffffffffffffffffffffffffff168152602001610bb862ffffff1681526020013373ffffffffffffffffffffffffffffffffffffffff16815260200142815260200184815260200160008152602001600073ffffffffffffffffffffffffffffffffffffffff1681525090507f000000000000000000000000000000000000000000000000000000000000000073ffffffffffffffffffffffffffffffffffffffff1663414bf389826040518263ffffffff1660e01b815260040161082f9190611158565b6020604051808303816000875af115801561084e573d6000803e3d6000fd5b505050506040513d601f19601f820116820180604052508101906108729190611189565b915050919050565b6000808573ffffffffffffffffffffffffffffffffffffffff166323b872dd60e01b8686866040516024016108b1939291906111b6565b604051602081830303815290604052907bffffffffffffffffffffffffffffffffffffffffffffffffffffffff19166020820180517bffffffffffffffffffffffffffffffffffffffffffffffffffffffff838183161783525050505060405161091b919061125e565b6000604051808303816000865af19150503d8060008114610958576040519150601f19603f3d011682016040523d82523d6000602084013e61095d565b606091505b509150915081801561098b575060008151148061098a57508080602001905181019061098991906112ad565b5b5b6109ca576040517f08c379a00000000000000000000000000000000000000000000000000000000081526004016109c190611337565b60405180910390fd5b505050505050565b6000808473ffffffffffffffffffffffffffffffffffffffff1663095ea7b360e01b8585604051602401610a07929190611357565b604051602081830303815290604052907bffffffffffffffffffffffffffffffffffffffffffffffffffffffff19166020820180517bffffffffffffffffffffffffffffffffffffffffffffffffffffffff8381831617835250505050604051610a71919061125e565b6000604051808303816000865af19150503d8060008114610aae576040519150601f19603f3d011682016040523d82523d6000602084013e610ab3565b606091505b5091509150818015610ae15750600081511480610ae0575080806020019051810190610adf91906112ad565b5b5b610b20576040517f08c379a0000000000000000000000000000000000000000000000000000000008152600401610b17906113cc565b60405180910390fd5b5050505050565b6000604051905090565b600080fd5b600080fd5b6000819050919050565b610b4e81610b3b565b8114610b5957600080fd5b50565b600081359050610b6b81610b45565b92915050565b600080fd5b6000601f19601f8301169050919050565b7f4e487b7100000000000000000000000000000000000000000000000000000000600052604160045260246000fd5b610bbf82610b76565b810181811067ffffffffffffffff82111715610bde57610bdd610b87565b5b80604052505050565b6000610bf1610b27565b9050610bfd8282610bb6565b919050565b600067ffffffffffffffff821115610c1d57610c1c610b87565b5b602082029050602081019050919050565b600080fd5b600080fd5b600073ffffffffffffffffffffffffffffffffffffffff82169050919050565b6000610c6382610c38565b9050919050565b610c7381610c58565b8114610c7e57600080fd5b50565b600081359050610c9081610c6a565b92915050565b600060ff82169050919050565b610cac81610c96565b8114610cb757600080fd5b50565b600081359050610cc981610ca3565b92915050565b600060408284031215610ce557610ce4610c33565b5b610cef6040610be7565b90506000610cff84828501610c81565b6000830152506020610d1384828501610cba565b60208301525092915050565b6000610d32610d2d84610c02565b610be7565b90508083825260208201905060408402830185811115610d5557610d54610c2e565b5b835b81811015610d7e5780610d6a8882610ccf565b845260208401935050604081019050610d57565b5050509392505050565b600082601f830112610d9d57610d9c610b71565b5b8135610dad848260208601610d1f565b91505092915050565b60008060408385031215610dcd57610dcc610b31565b5b6000610ddb85828601610b5c565b925050602083013567ffffffffffffffff811115610dfc57610dfb610b36565b5b610e0885828601610d88565b9150509250929050565b600060208284031215610e2857610e27610b31565b5b6000610e3684828501610b5c565b91505092915050565b610e4881610b3b565b82525050565b6000602082019050610e636000830184610e3f565b92915050565b610e7281610c58565b82525050565b6000602082019050610e8d6000830184610e69565b92915050565b600062ffffff82169050919050565b610eab81610e93565b82525050565b6000602082019050610ec66000830184610ea2565b92915050565b6000819050919050565b6000610ef1610eec610ee784610c38565b610ecc565b610c38565b9050919050565b6000610f0382610ed6565b9050919050565b6000610f1582610ef8565b9050919050565b610f2581610f0a565b82525050565b6000602082019050610f406000830184610f1c565b92915050565b7f4e487b7100000000000000000000000000000000000000000000000000000000600052601160045260246000fd5b6000610f8082610b3b565b9150610f8b83610b3b565b9250828203905081811115610fa357610fa2610f46565b5b92915050565b7f4e487b7100000000000000000000000000000000000000000000000000000000600052603260045260246000fd5b6000610fe382610b3b565b9150610fee83610b3b565b9250828202610ffc81610b3b565b9150828204841483151761101357611012610f46565b5b5092915050565b7f4e487b7100000000000000000000000000000000000000000000000000000000600052601260045260246000fd5b600061105482610b3b565b915061105f83610b3b565b92508261106f5761106e61101a565b5b828204905092915050565b61108381610c58565b82525050565b61109281610e93565b82525050565b6110a181610b3b565b82525050565b6110b081610c38565b82525050565b610100820160008201516110cd600085018261107a565b5060208201516110e0602085018261107a565b5060408201516110f36040850182611089565b506060820151611106606085018261107a565b5060808201516111196080850182611098565b5060a082015161112c60a0850182611098565b5060c082015161113f60c0850182611098565b5060e082015161115260e08501826110a7565b50505050565b60006101008201905061116e60008301846110b6565b92915050565b60008151905061118381610b45565b92915050565b60006020828403121561119f5761119e610b31565b5b60006111ad84828501611174565b91505092915050565b60006060820190506111cb6000830186610e69565b6111d86020830185610e69565b6111e56040830184610e3f565b949350505050565b600081519050919050565b600081905092915050565b60005b83811015611221578082015181840152602081019050611206565b60008484015250505050565b6000611238826111ed565b61124281856111f8565b9350611252818560208601611203565b80840191505092915050565b600061126a828461122d565b915081905092915050565b60008115159050919050565b61128a81611275565b811461129557600080fd5b50565b6000815190506112a781611281565b92915050565b6000602082840312156112c3576112c2610b31565b5b60006112d184828501611298565b91505092915050565b600082825260208201905092915050565b7f5354460000000000000000000000000000000000000000000000000000000000600082015250565b60006113216003836112da565b915061132c826112eb565b602082019050919050565b6000602082019050818103600083015261135081611314565b9050919050565b600060408201905061136c6000830185610e69565b6113796020830184610e3f565b9392505050565b7f5341000000000000000000000000000000000000000000000000000000000000600082015250565b60006113b66002836112da565b91506113c182611380565b602082019050919050565b600060208201905081810360008301526113e5816113a9565b905091905056fea2646970667358221220bf35912ab3a61839d92440e4bbe1b97ba32d8254e715f5eb3131c5603bcf4f2564736f6c63430008180033",
  "linkReferences": {},
  "deployedLinkReferences": {}
}